{
  "_format": "hh3-artifact-1",
  "contractName": "CarbonCreditMarketplace",
  "sourceName": "contracts/CarbonCreditMarketplace.sol",
  "abi": [
    {
      "inputs": [
        {
          "internalType": "address",
          "name": "tokenAddress",
          "type": "address"
        },
        {
          "internalType": "uint256",
          "name": "initialFee",
          "type": "uint256"
        }
      ],
      "stateMutability": "nonpayable",
      "type": "constructor"
    },
    {
      "anonymous": false,
      "inputs": [
        {
          "indexed": true,
          "internalType": "uint256",
          "name": "listingId",
          "type": "uint256"
        }
      ],
      "name": "ListingCancelled",
      "type": "event"
    },
    {
      "anonymous": false,
      "inputs": [
        {
          "indexed": true,
          "internalType": "uint256",
          "name": "listingId",
          "type": "uint256"
        },
        {
          "indexed": true,
          "internalType": "address",
          "name": "seller",
          "type": "address"
        },
        {
          "indexed": false,
          "internalType": "uint256",
          "name": "amount",
          "type": "uint256"
        },
        {
          "indexed": false,
          "internalType": "uint256",
          "name": "pricePerCredit",
          "type": "uint256"
        }
      ],
      "name": "ListingCreated",
      "type": "event"
    },
    {
      "anonymous": false,
      "inputs": [
        {
          "indexed": true,
          "internalType": "uint256",
          "name": "listingId",
          "type": "uint256"
        },
        {
          "indexed": true,
          "internalType": "address",
          "name": "buyer",
          "type": "address"
        },
        {
          "indexed": false,
          "internalType": "uint256",
          "name": "amount",
          "type": "uint256"
        },
        {
          "indexed": false,
          "internalType": "uint256",
          "name": "totalPrice",
          "type": "uint256"
        }
      ],
      "name": "PurchaseExecuted",
      "type": "event"
    },
    {
      "inputs": [],
      "name": "MAX_FEE",
      "outputs": [
        {
          "internalType": "uint256",
          "name": "",
          "type": "uint256"
        }
      ],
      "stateMutability": "view",
      "type": "function"
    },
    {
      "inputs": [
        {
          "internalType": "uint256",
          "name": "listingId",
          "type": "uint256"
        }
      ],
      "name": "cancelListing",
      "outputs": [],
      "stateMutability": "nonpayable",
      "type": "function"
    },
    {
      "inputs": [
        {
          "internalType": "uint256",
          "name": "amount",
          "type": "uint256"
        },
        {
          "internalType": "uint256",
          "name": "pricePerCredit",
          "type": "uint256"
        }
      ],
      "name": "createListing",
      "outputs": [
        {
          "internalType": "uint256",
          "name": "",
          "type": "uint256"
        }
      ],
      "stateMutability": "nonpayable",
      "type": "function"
    },
    {
      "inputs": [],
      "name": "creditToken",
      "outputs": [
        {
          "internalType": "contract CarbonCreditToken",
          "name": "",
          "type": "address"
        }
      ],
      "stateMutability": "view",
      "type": "function"
    },
    {
      "inputs": [],
      "name": "feePercentage",
      "outputs": [
        {
          "internalType": "uint256",
          "name": "",
          "type": "uint256"
        }
      ],
      "stateMutability": "view",
      "type": "function"
    },
    {
      "inputs": [
        {
          "internalType": "uint256",
          "name": "listingId",
          "type": "uint256"
        }
      ],
      "name": "getListing",
      "outputs": [
        {
          "internalType": "address",
          "name": "seller",
          "type": "address"
        },
        {
          "internalType": "uint256",
          "name": "amount",
          "type": "uint256"
        },
        {
          "internalType": "uint256",
          "name": "pricePerCredit",
          "type": "uint256"
        },
        {
          "internalType": "bool",
          "name": "active",
          "type": "bool"
        },
        {
          "internalType": "uint256",
          "name": "timestamp",
          "type": "uint256"
        }
      ],
      "stateMutability": "view",
      "type": "function"
    },
    {
      "inputs": [
        {
          "internalType": "address",
          "name": "seller",
          "type": "address"
        }
      ],
      "name": "getSellerListings",
      "outputs": [
        {
          "internalType": "uint256[]",
          "name": "",
          "type": "uint256[]"
        }
      ],
      "stateMutability": "view",
      "type": "function"
    },
    {
      "inputs": [],
      "name": "listingCount",
      "outputs": [
        {
          "internalType": "uint256",
          "name": "",
          "type": "uint256"
        }
      ],
      "stateMutability": "view",
      "type": "function"
    },
    {
      "inputs": [
        {
          "internalType": "uint256",
          "name": "",
          "type": "uint256"
        }
      ],
      "name": "listings",
      "outputs": [
        {
          "internalType": "address",
          "name": "seller",
          "type": "address"
        },
        {
          "internalType": "uint256",
          "name": "amount",
          "type": "uint256"
        },
        {
          "internalType": "uint256",
          "name": "pricePerCredit",
          "type": "uint256"
        },
        {
          "internalType": "bool",
          "name": "active",
          "type": "bool"
        },
        {
          "internalType": "uint256",
          "name": "timestamp",
          "type": "uint256"
        }
      ],
      "stateMutability": "view",
      "type": "function"
    },
    {
      "inputs": [],
      "name": "owner",
      "outputs": [
        {
          "internalType": "address",
          "name": "",
          "type": "address"
        }
      ],
      "stateMutability": "view",
      "type": "function"
    },
    {
      "inputs": [
        {
          "internalType": "uint256",
          "name": "listingId",
          "type": "uint256"
        },
        {
          "internalType": "uint256",
          "name": "amount",
          "type": "uint256"
        }
      ],
      "name": "purchase",
      "outputs": [],
      "stateMutability": "payable",
      "type": "function"
    },
    {
      "inputs": [
        {
          "internalType": "address",
          "name": "",
          "type": "address"
        },
        {
          "internalType": "uint256",
          "name": "",
          "type": "uint256"
        }
      ],
      "name": "sellerListings",
      "outputs": [
        {
          "internalType": "uint256",
          "name": "",
          "type": "uint256"
        }
      ],
      "stateMutability": "view",
      "type": "function"
    },
    {
      "inputs": [
        {
          "internalType": "uint256",
          "name": "newFee",
          "type": "uint256"
        }
      ],
      "name": "setFee",
      "outputs": [],
      "stateMutability": "nonpayable",
      "type": "function"
    },
    {
      "inputs": [],
      "name": "withdrawFees",
      "outputs": [],
      "stateMutability": "nonpayable",
      "type": "function"
    },
    {
      "stateMutability": "payable",
      "type": "receive"
    }
  ],
  "bytecode": "0x608060405234801561000f575f5ffd5b50604051610fea380380610fea83398101604081905261002e916100f2565b6001600160a01b03821661007b5760405162461bcd60e51b815260206004820152600f60248201526e0746f6b656e2061646472657373203608c1b60448201526064015b60405180910390fd5b6103e88111156100bc5760405162461bcd60e51b815260206004820152600c60248201526b0cccaca40e8dede40d0d2ced60a31b6044820152606401610072565b60018054336001600160a01b0319918216179091555f80549091166001600160a01b039390931692909217909155600255610129565b5f5f60408385031215610103575f5ffd5b82516001600160a01b0381168114610119575f5ffd5b6020939093015192949293505050565b610eb4806101365f395ff3fe6080604052600436106100dc575f3560e01c8063899e5d851161007c578063a79123a911610057578063a79123a914610269578063a9b07c2614610288578063bc063e1a1461029d578063de74e57b146102b2575f5ffd5b8063899e5d85146101ff5780638da5cb5b14610235578063a001ecdd14610254575f5ffd5b8063476343ee116100b7578063476343ee1461018d5780635f42da09146101a157806369fe0e2d146101cd57806370876c98146101ec575f5ffd5b8063054564f0146100e7578063107a274a14610119578063305a67a81461016c575f5ffd5b366100e357005b5f5ffd5b3480156100f2575f5ffd5b50610106610101366004610d12565b61030b565b6040519081526020015b60405180910390f35b348015610124575f5ffd5b50610138610133366004610d3a565b610336565b604080516001600160a01b03909616865260208601949094529284019190915215156060830152608082015260a001610110565b348015610177575f5ffd5b5061018b610186366004610d3a565b6103d1565b005b348015610198575f5ffd5b5061018b61056c565b3480156101ac575f5ffd5b506101c06101bb366004610d51565b610626565b6040516101109190610d71565b3480156101d8575f5ffd5b5061018b6101e7366004610d3a565b61068f565b61018b6101fa366004610db3565b61071c565b34801561020a575f5ffd5b505f5461021d906001600160a01b031681565b6040516001600160a01b039091168152602001610110565b348015610240575f5ffd5b5060015461021d906001600160a01b031681565b34801561025f575f5ffd5b5061010660025481565b348015610274575f5ffd5b50610106610283366004610db3565b610a27565b348015610293575f5ffd5b5061010660035481565b3480156102a8575f5ffd5b506101066103e881565b3480156102bd575f5ffd5b506101386102cc366004610d3a565b600460208190525f9182526040909120805460018201546002830154600384015493909401546001600160a01b03909216939092909160ff9091169085565b6005602052815f5260405f208181548110610324575f80fd5b905f5260205f20015f91509150505481565b5f818152600460205260408120805482918291829182916001600160a01b031661039b5760405162461bcd60e51b81526020600482015260116024820152701b1a5cdd1a5b99c81b9bdd08199bdd5b99607a1b60448201526064015b60405180910390fd5b80546001820154600283015460038401546004909401546001600160a01b039093169a919950975060ff90921695509350915050565b5f8181526004602052604090205481906001600160a01b031633146104265760405162461bcd60e51b815260206004820152600b60248201526a37b7363c9039b2b63632b960a91b6044820152606401610392565b5f828152600460205260409020600381015460ff1661047b5760405162461bcd60e51b8152602060048201526011602482015270185b1c9958591e4818d85b98d95b1b1959607a1b6044820152606401610392565b60038101805460ff191690555f548154600183015460405163a9059cbb60e01b81526001600160a01b039283166004820152602481019190915291169063a9059cbb906044016020604051808303815f875af11580156104dd573d5f5f3e3d5ffd5b505050506040513d601f19601f820116820180604052508101906105019190610dd3565b61053d5760405162461bcd60e51b815260206004820152600d60248201526c1c995d1d5c9b8819985a5b1959609a1b6044820152606401610392565b60405183907f411aee90354c51b1b04cd563fcab2617142a9d50da19232d888547c8a1b7fd8a905f90a2505050565b6001546001600160a01b031633146105b35760405162461bcd60e51b815260206004820152600a60248201526937b7363c9037bbb732b960b11b6044820152606401610392565b47806105eb5760405162461bcd60e51b81526020600482015260076024820152666e6f206665657360c81b6044820152606401610392565b6001546040516001600160a01b039091169082156108fc029083905f818181858888f19350505050158015610622573d5f5f3e3d5ffd5b5050565b6001600160a01b0381165f9081526005602090815260409182902080548351818402810184019094528084526060939283018282801561068357602002820191905f5260205f20905b81548152602001906001019080831161066f575b50505050509050919050565b6001546001600160a01b031633146106d65760405162461bcd60e51b815260206004820152600a60248201526937b7363c9037bbb732b960b11b6044820152606401610392565b6103e88111156107175760405162461bcd60e51b815260206004820152600c60248201526b0cccaca40e8dede40d0d2ced60a31b6044820152606401610392565b600255565b5f828152600460205260409020600381015460ff166107705760405162461bcd60e51b815260206004820152601060248201526f6c697374696e6720696e61637469766560801b6044820152606401610392565b81816001015410156107bb5760405162461bcd60e51b8152602060048201526014602482015273696e73756666696369656e74206c697374696e6760601b6044820152606401610392565b80546001600160a01b031633036108055760405162461bcd60e51b815260206004820152600e60248201526d31b0b73737ba10313abc9037bbb760911b6044820152606401610392565b5f8160020154836108169190610e06565b90508034101561085f5760405162461bcd60e51b81526020600482015260146024820152731a5b9cdd59999a58da595b9d081c185e5b595b9d60621b6044820152606401610392565b5f612710600254836108719190610e06565b61087b9190610e1d565b90505f6108888284610e3c565b5f5460405163a9059cbb60e01b8152336004820152602481018890529192506001600160a01b03169063a9059cbb906044016020604051808303815f875af11580156108d6573d5f5f3e3d5ffd5b505050506040513d601f19601f820116820180604052508101906108fa9190610dd3565b61093e5760405162461bcd60e51b81526020600482015260156024820152741d1bdad95b881d1c985b9cd9995c8819985a5b1959605a1b6044820152606401610392565b83546040516001600160a01b039091169082156108fc029083905f818181858888f19350505050158015610974573d5f5f3e3d5ffd5b50823411156109b257336108fc61098b8534610e3c565b6040518115909202915f818181858888f193505050501580156109b0573d5f5f3e3d5ffd5b505b84846001015f8282546109c59190610e3c565b909155505060018401545f036109e25760038401805460ff191690555b6040805186815260208101859052339188917f654ba4d16a936be57a8a98001798a0bc25ef68c47550966052edd64559b15a46910160405180910390a3505050505050565b5f5f8311610a645760405162461bcd60e51b815260206004820152600a6024820152690616d6f756e74203e20360b41b6044820152606401610392565b5f8211610a9f5760405162461bcd60e51b815260206004820152600960248201526807072696365203e20360bc1b6044820152606401610392565b5f546040516370a0823160e01b815233600482015284916001600160a01b0316906370a0823190602401602060405180830381865afa158015610ae4573d5f5f3e3d5ffd5b505050506040513d601f19601f82011682018060405250810190610b089190610e4f565b1015610b4d5760405162461bcd60e51b8152602060048201526014602482015273696e73756666696369656e742062616c616e636560601b6044820152606401610392565b5f546040516323b872dd60e01b8152336004820152306024820152604481018590526001600160a01b03909116906323b872dd906064016020604051808303815f875af1158015610ba0573d5f5f3e3d5ffd5b505050506040513d601f19601f82011682018060405250810190610bc49190610dd3565b610c025760405162461bcd60e51b815260206004820152600f60248201526e1d1c985b9cd9995c8819985a5b1959608a1b6044820152606401610392565b5f60035f8154610c1190610e66565b91829055506040805160a08101825233808252602080830189815283850189815260016060860181815242608088019081525f8a815260048088528a822099518a546001600160a01b0319166001600160a01b03909116178a5595518985015593516002890155905160038801805460ff19169115159190911790555195909201949094558284526005825284842080549182018155845292819020909201849055825188815291820187905292935083917f12dc294b81a709d694b1337a350a12a00076c19a77a25aab67a5f0c07e0f164d910160405180910390a390505b92915050565b80356001600160a01b0381168114610d0d575f5ffd5b919050565b5f5f60408385031215610d23575f5ffd5b610d2c83610cf7565b946020939093013593505050565b5f60208284031215610d4a575f5ffd5b5035919050565b5f60208284031215610d61575f5ffd5b610d6a82610cf7565b9392505050565b602080825282518282018190525f918401906040840190835b81811015610da8578351835260209384019390920191600101610d8a565b509095945050505050565b5f5f60408385031215610dc4575f5ffd5b50508035926020909101359150565b5f60208284031215610de3575f5ffd5b81518015158114610d6a575f5ffd5b634e487b7160e01b5f52601160045260245ffd5b8082028115828204841417610cf157610cf1610df2565b5f82610e3757634e487b7160e01b5f52601260045260245ffd5b500490565b81810381811115610cf157610cf1610df2565b5f60208284031215610e5f575f5ffd5b5051919050565b5f60018201610e7757610e77610df2565b506001019056fea26469706673582212201e7662272654ff3ede4b386161f79d16a2d20b448896abca9713f7d0a41c6fe764736f6c634300081c0033",
  "linkReferences": {},
  "deployedLinkReferences": {},
  "immutableReferences": {},
  "inputSourceName": "project/contracts/CarbonCreditMarketplace.sol",
  "buildInfoId": "solc-0_8_28-b0c345caf7857239a541fab616dfab33570d0ab1"
}