{
  "_format": "hh3-artifact-1",
  "contractName": "EcoLedger",
  "sourceName": "contracts/EcoLedger.sol",
  "abi": [
    {
      "inputs": [
        {
          "internalType": "address",
          "name": "token",
          "type": "address"
        },
        {
          "internalType": "address",
          "name": "badge",
          "type": "address"
        }
      ],
      "stateMutability": "nonpayable",
      "type": "constructor"
    },
    {
      "anonymous": false,
      "inputs": [
        {
          "indexed": true,
          "internalType": "uint256",
          "name": "actionId",
          "type": "uint256"
        },
        {
          "indexed": false,
          "internalType": "bool",
          "name": "approved",
          "type": "bool"
        },
        {
          "indexed": false,
          "internalType": "uint256",
          "name": "credits",
          "type": "uint256"
        }
      ],
      "name": "ActionVerified",
      "type": "event"
    },
    {
      "anonymous": false,
      "inputs": [
        {
          "indexed": true,
          "internalType": "uint256",
          "name": "actionId",
          "type": "uint256"
        },
        {
          "indexed": true,
          "internalType": "address",
          "name": "company",
          "type": "address"
        },
        {
          "indexed": false,
          "internalType": "string",
          "name": "title",
          "type": "string"
        }
      ],
      "name": "EcoActionLogged",
      "type": "event"
    },
    {
      "inputs": [],
      "name": "actionCount",
      "outputs": [
        {
          "internalType": "uint256",
          "name": "",
          "type": "uint256"
        }
      ],
      "stateMutability": "view",
      "type": "function"
    },
    {
      "inputs": [],
      "name": "badgeNFT",
      "outputs": [
        {
          "internalType": "contract EcoBadgeNFT",
          "name": "",
          "type": "address"
        }
      ],
      "stateMutability": "view",
      "type": "function"
    },
    {
      "inputs": [],
      "name": "creditToken",
      "outputs": [
        {
          "internalType": "contract CarbonCreditToken",
          "name": "",
          "type": "address"
        }
      ],
      "stateMutability": "view",
      "type": "function"
    },
    {
      "inputs": [
        {
          "internalType": "uint256",
          "name": "actionId",
          "type": "uint256"
        }
      ],
      "name": "getAction",
      "outputs": [
        {
          "internalType": "string",
          "name": "title",
          "type": "string"
        },
        {
          "internalType": "string",
          "name": "description",
          "type": "string"
        },
        {
          "internalType": "uint256",
          "name": "estimatedCredits",
          "type": "uint256"
        },
        {
          "internalType": "string",
          "name": "location",
          "type": "string"
        },
        {
          "internalType": "bool",
          "name": "verified",
          "type": "bool"
        },
        {
          "internalType": "uint256",
          "name": "actualCredits",
          "type": "uint256"
        }
      ],
      "stateMutability": "view",
      "type": "function"
    },
    {
      "inputs": [
        {
          "internalType": "string",
          "name": "title",
          "type": "string"
        },
        {
          "internalType": "string",
          "name": "description",
          "type": "string"
        },
        {
          "internalType": "uint256",
          "name": "estimatedCredits",
          "type": "uint256"
        },
        {
          "internalType": "string",
          "name": "location",
          "type": "string"
        }
      ],
      "name": "logEcoAction",
      "outputs": [
        {
          "internalType": "uint256",
          "name": "",
          "type": "uint256"
        }
      ],
      "stateMutability": "nonpayable",
      "type": "function"
    },
    {
      "inputs": [],
      "name": "owner",
      "outputs": [
        {
          "internalType": "address",
          "name": "",
          "type": "address"
        }
      ],
      "stateMutability": "view",
      "type": "function"
    },
    {
      "inputs": [
        {
          "internalType": "uint256",
          "name": "actionId",
          "type": "uint256"
        },
        {
          "internalType": "bool",
          "name": "approved",
          "type": "bool"
        },
        {
          "internalType": "uint256",
          "name": "actualCredits",
          "type": "uint256"
        }
      ],
      "name": "verifyAction",
      "outputs": [],
      "stateMutability": "nonpayable",
      "type": "function"
    }
  ],
  "bytecode": "0x6080604052348015600e575f5ffd5b50604051610cdc380380610cdc833981016040819052602b91607f565b5f80546001600160a01b03199081163317909155600180546001600160a01b039485169083161790556002805492909316911617905560ab565b80516001600160a01b0381168114607a575f5ffd5b919050565b5f5f60408385031215608f575f5ffd5b6096836065565b915060a2602084016065565b90509250929050565b610c24806100b85f395ff3fe608060405234801561000f575f5ffd5b5060043610610079575f3560e01c80637df3dc14116100585780637df3dc14146100d9578063899e5d85146100ec5780638da5cb5b146100ff578063b6e7687314610111575f5ffd5b8062d1c93b1461007d57806329da5738146100925780634348e0e9146100ae575b5f5ffd5b61009061008b36600461084e565b610136565b005b61009b60035481565b6040519081526020015b60405180910390f35b6002546100c1906001600160a01b031681565b6040516001600160a01b0390911681526020016100a5565b61009b6100e73660046108cc565b6103cc565b6001546100c1906001600160a01b031681565b5f546100c1906001600160a01b031681565b61012461011f366004610974565b610615565b6040516100a5969594939291906109b9565b5f546001600160a01b031633146101815760405162461bcd60e51b815260206004820152600a60248201526937b7363c9037bbb732b960b11b60448201526064015b60405180910390fd5b5f83815260046020526040902080546001600160a01b03166101d15760405162461bcd60e51b815260206004820152600960248201526837379030b1ba34b7b760b91b6044820152606401610178565b600581015460ff16156102195760405162461bcd60e51b815260206004820152601060248201526f185b1c9958591e481d995c9a599a595960821b6044820152606401610178565b8215610373575f821161025c5760405162461bcd60e51b815260206004820152600b60248201526a063726564697473203e20360ac1b6044820152606401610178565b60058101805460ff19166001908117909155600682018390555481546001600160a01b03918216916340c10f19911661029d85670de0b6b3a7640000610a21565b6040516001600160e01b031960e085901b1681526001600160a01b03909216600483015260248201526044015f604051808303815f87803b1580156102e0575f5ffd5b505af11580156102f2573d5f5f3e3d5ffd5b505050506064821061036e5760025481546040516340d097c360e01b81526001600160a01b0391821660048201529116906340d097c3906024016020604051808303815f875af1158015610348573d5f5f3e3d5ffd5b505050506040513d601f19601f8201168201806040525081019061036c9190610a3e565b505b610389565b60058101805460ff191660011790555f60068201555b6040805184151581526020810184905285917f278f78dc1b08ab22fca8984b6001a22bd8d2b9ec5f90e1c45303e8f16e1cfb66910160405180910390a250505050565b5f8661040b5760405162461bcd60e51b815260206004820152600e60248201526d1d1a5d1b19481c995c5d5a5c995960921b6044820152606401610178565b5f84116104495760405162461bcd60e51b815260206004820152600c60248201526b0657374696d617465203e20360a41b6044820152606401610178565b5f60035f815461045890610a55565b91905081905590506040518060e00160405280336001600160a01b031681526020018a8a8080601f0160208091040260200160405190810160405280939291908181526020018383808284375f92019190915250505090825250604080516020601f8b0181900481028201810190925289815291810191908a908a90819084018382808284375f92019190915250505090825250602080820188905260408051601f880183900483028101830182528781529201919087908790819084018382808284375f9201829052509385525050506020808301829052604092830182905284825260048152919020825181546001600160a01b0319166001600160a01b039091161781559082015160018201906105729082610b05565b50604082015160028201906105879082610b05565b5060608201516003820155608082015160048201906105a69082610b05565b5060a082015160058201805460ff191691151591909117905560c090910151600690910155604051339082907f258d362ddb109f2d6b93841198837dd8b12c92aa67f08cec145f01d421830bab90610601908d908d90610bc0565b60405180910390a398975050505050505050565b5f818152600460205260408120805460609283929091839183918291906001600160a01b03166106735760405162461bcd60e51b815260206004820152600960248201526837379030b1ba34b7b760b91b6044820152606401610178565b8060010181600201826003015483600401846005015f9054906101000a900460ff1685600601548580546106a690610a81565b80601f01602080910402602001604051908101604052809291908181526020018280546106d290610a81565b801561071d5780601f106106f45761010080835404028352916020019161071d565b820191905f5260205f20905b81548152906001019060200180831161070057829003601f168201915b5050505050955084805461073090610a81565b80601f016020809104026020016040519081016040528092919081815260200182805461075c90610a81565b80156107a75780601f1061077e576101008083540402835291602001916107a7565b820191905f5260205f20905b81548152906001019060200180831161078a57829003601f168201915b505050505094508280546107ba90610a81565b80601f01602080910402602001604051908101604052809291908181526020018280546107e690610a81565b80156108315780601f1061080857610100808354040283529160200191610831565b820191905f5260205f20905b81548152906001019060200180831161081457829003601f168201915b505050505092509650965096509650965096505091939550919395565b5f5f5f60608486031215610860575f5ffd5b8335925060208401358015158114610876575f5ffd5b929592945050506040919091013590565b5f5f83601f840112610897575f5ffd5b50813567ffffffffffffffff8111156108ae575f5ffd5b6020830191508360208285010111156108c5575f5ffd5b9250929050565b5f5f5f5f5f5f5f6080888a0312156108e2575f5ffd5b873567ffffffffffffffff8111156108f8575f5ffd5b6109048a828b01610887565b909850965050602088013567ffffffffffffffff811115610923575f5ffd5b61092f8a828b01610887565b90965094505060408801359250606088013567ffffffffffffffff811115610955575f5ffd5b6109618a828b01610887565b989b979a50959850939692959293505050565b5f60208284031215610984575f5ffd5b5035919050565b5f81518084528060208401602086015e5f602082860101526020601f19601f83011685010191505092915050565b60c081525f6109cb60c083018961098b565b82810360208401526109dd818961098b565b905086604084015282810360608401526109f7818761098b565b9415156080840152505060a00152949350505050565b634e487b7160e01b5f52601160045260245ffd5b8082028115828204841417610a3857610a38610a0d565b92915050565b5f60208284031215610a4e575f5ffd5b5051919050565b5f60018201610a6657610a66610a0d565b5060010190565b634e487b7160e01b5f52604160045260245ffd5b600181811c90821680610a9557607f821691505b602082108103610ab357634e487b7160e01b5f52602260045260245ffd5b50919050565b601f821115610b0057805f5260205f20601f840160051c81016020851015610ade5750805b601f840160051c820191505b81811015610afd575f8155600101610aea565b50505b505050565b815167ffffffffffffffff811115610b1f57610b1f610a6d565b610b3381610b2d8454610a81565b84610ab9565b6020601f821160018114610b65575f8315610b4e5750848201515b5f19600385901b1c1916600184901b178455610afd565b5f84815260208120601f198516915b82811015610b945787850151825560209485019460019092019101610b74565b5084821015610bb157868401515f19600387901b60f8161c191681555b50505050600190811b01905550565b60208152816020820152818360408301375f818301604090810191909152601f909201601f1916010191905056fea2646970667358221220a4f346b426c39459e90aee0c96ab170d347e34f0b03363df09c0200135f4e9be64736f6c634300081c0033",
  "linkReferences": {},
  "deployedLinkReferences": {},
  "immutableReferences": {},
  "inputSourceName": "project/contracts/EcoLedger.sol",
  "buildInfoId": "solc-0_8_28-810b7f2ae219d9c8c707bc1513f31d287017b715"
}