{
  "_format": "hh3-artifact-1",
  "contractName": "AccessControl",
  "sourceName": "contracts/AccessControl.sol",
  "abi": [
    {
      "inputs": [],
      "stateMutability": "nonpayable",
      "type": "constructor"
    },
    {
      "anonymous": false,
      "inputs": [
        {
          "indexed": true,
          "internalType": "address",
          "name": "previousOwner",
          "type": "address"
        },
        {
          "indexed": true,
          "internalType": "address",
          "name": "newOwner",
          "type": "address"
        }
      ],
      "name": "OwnershipTransferred",
      "type": "event"
    },
    {
      "anonymous": false,
      "inputs": [
        {
          "indexed": true,
          "internalType": "address",
          "name": "account",
          "type": "address"
        },
        {
          "indexed": false,
          "internalType": "enum AccessControl.Role",
          "name": "role",
          "type": "uint8"
        }
      ],
      "name": "RoleGranted",
      "type": "event"
    },
    {
      "anonymous": false,
      "inputs": [
        {
          "indexed": true,
          "internalType": "address",
          "name": "account",
          "type": "address"
        },
        {
          "indexed": false,
          "internalType": "enum AccessControl.Role",
          "name": "role",
          "type": "uint8"
        }
      ],
      "name": "RoleRevoked",
      "type": "event"
    },
    {
      "inputs": [
        {
          "internalType": "address",
          "name": "account",
          "type": "address"
        },
        {
          "internalType": "enum AccessControl.Role",
          "name": "role",
          "type": "uint8"
        }
      ],
      "name": "grantRole",
      "outputs": [],
      "stateMutability": "nonpayable",
      "type": "function"
    },
    {
      "inputs": [
        {
          "internalType": "address",
          "name": "account",
          "type": "address"
        },
        {
          "internalType": "enum AccessControl.Role",
          "name": "role",
          "type": "uint8"
        }
      ],
      "name": "hasRole",
      "outputs": [
        {
          "internalType": "bool",
          "name": "",
          "type": "bool"
        }
      ],
      "stateMutability": "view",
      "type": "function"
    },
    {
      "inputs": [],
      "name": "owner",
      "outputs": [
        {
          "internalType": "address",
          "name": "",
          "type": "address"
        }
      ],
      "stateMutability": "view",
      "type": "function"
    },
    {
      "inputs": [
        {
          "internalType": "address",
          "name": "account",
          "type": "address"
        }
      ],
      "name": "revokeRole",
      "outputs": [],
      "stateMutability": "nonpayable",
      "type": "function"
    },
    {
      "inputs": [
        {
          "internalType": "address",
          "name": "",
          "type": "address"
        }
      ],
      "name": "roles",
      "outputs": [
        {
          "internalType": "enum AccessControl.Role",
          "name": "",
          "type": "uint8"
        }
      ],
      "stateMutability": "view",
      "type": "function"
    },
    {
      "inputs": [
        {
          "internalType": "address",
          "name": "newOwner",
          "type": "address"
        }
      ],
      "name": "transferOwnership",
      "outputs": [],
      "stateMutability": "nonpayable",
      "type": "function"
    }
  ],
  "bytecode": "0x6080604052348015600e575f5ffd5b50600180546001600160a01b0319163390811782555f8181526020819052604090819020805460ff1916841790555190917faa259565575c834bc07e74dca784b4071676133ac78513b431afb6ee7edae12191606991906075565b60405180910390a2609a565b6020810160048310609457634e487b7160e01b5f52602160045260245ffd5b91905290565b61063a806100a75f395ff3fe608060405234801561000f575f5ffd5b5060043610610060575f3560e01c80633e8402361461006457806380e52e3f146100795780638da5cb5b1461008c57806395a8c58d146100bc57806399374642146100df578063f2fde38b1461010e575b5f5ffd5b61007761007236600461054e565b610121565b005b610077610087366004610586565b61026b565b60015461009f906001600160a01b031681565b6040516001600160a01b0390911681526020015b60405180910390f35b6100cf6100ca36600461054e565b610340565b60405190151581526020016100b3565b6101016100ed366004610586565b5f6020819052908152604090205460ff1681565b6040516100b391906105ba565b61007761011c366004610586565b610387565b6001546001600160a01b031633146101545760405162461bcd60e51b815260040161014b906105e0565b60405180910390fd5b6001600160a01b0382166101995760405162461bcd60e51b815260206004820152600c60248201526b7a65726f206164647265737360a01b604482015260640161014b565b5f8160038111156101ac576101ac6105a6565b036101ed5760405162461bcd60e51b815260206004820152601160248201527063616e6e6f74206772616e74204e4f4e4560781b604482015260640161014b565b6001600160a01b0382165f908152602081905260409020805482919060ff19166001836003811115610221576102216105a6565b0217905550816001600160a01b03167faa259565575c834bc07e74dca784b4071676133ac78513b431afb6ee7edae1218260405161025f91906105ba565b60405180910390a25050565b6001546001600160a01b031633146102955760405162461bcd60e51b815260040161014b906105e0565b6001546001600160a01b03908116908216036102e95760405162461bcd60e51b815260206004820152601360248201527231b0b73737ba103932bb37b5b29037bbb732b960691b604482015260640161014b565b6001600160a01b0381165f81815260208190526040808220805460ff19169055517f34a1009b84e077aee5bc8197faf7105e54f9ba6879e2a51a716e4156ea9ad76991610335916105ba565b60405180910390a250565b5f816003811115610353576103536105a6565b6001600160a01b0384165f9081526020819052604090205460ff16600381111561037f5761037f6105a6565b149392505050565b6001546001600160a01b031633146103b15760405162461bcd60e51b815260040161014b906105e0565b6001600160a01b0381166103f65760405162461bcd60e51b815260206004820152600c60248201526b7a65726f206164647265737360a01b604482015260640161014b565b6001546001600160a01b03908116908216036104415760405162461bcd60e51b815260206004820152600a60248201526939b0b6b29037bbb732b960b11b604482015260640161014b565b600180546001600160a01b039081165f81815260208190526040808220805460ff1990811690915585546001600160a01b031916948716948517865584835281832080549091169095179094559251909283917f8be0079c531659141344cd1fd0a4f28419497f9722a3daafe3b4186f6b6457e09190a3806001600160a01b03167f34a1009b84e077aee5bc8197faf7105e54f9ba6879e2a51a716e4156ea9ad7695f6040516104f191906105ba565b60405180910390a2816001600160a01b03167faa259565575c834bc07e74dca784b4071676133ac78513b431afb6ee7edae121600160405161025f91906105ba565b80356001600160a01b0381168114610549575f5ffd5b919050565b5f5f6040838503121561055f575f5ffd5b61056883610533565b915060208301356004811061057b575f5ffd5b809150509250929050565b5f60208284031215610596575f5ffd5b61059f82610533565b9392505050565b634e487b7160e01b5f52602160045260245ffd5b60208101600483106105da57634e487b7160e01b5f52602160045260245ffd5b91905290565b6020808252600a908201526937b7363c9037bbb732b960b11b60408201526060019056fea2646970667358221220ae603789066ae741fa4ce2ea818adf828a5afbf55e2c7612216a26376c5ccc5964736f6c634300081c0033",
  "linkReferences": {},
  "deployedLinkReferences": {},
  "immutableReferences": {},
  "inputSourceName": "project/contracts/AccessControl.sol",
  "buildInfoId": "solc-0_8_28-bf34a28f2b2b0dfb53da2e91a3ade0689597f054"
}