{
  "_format": "hh3-artifact-1",
  "contractName": "CarbonCreditToken",
  "sourceName": "contracts/CarbonCreditToken.sol",
  "abi": [
    {
      "inputs": [
        {
          "internalType": "address",
          "name": "initialOwner",
          "type": "address"
        },
        {
          "internalType": "address",
          "name": "initialMinter",
          "type": "address"
        }
      ],
      "stateMutability": "nonpayable",
      "type": "constructor"
    },
    {
      "anonymous": false,
      "inputs": [
        {
          "indexed": true,
          "internalType": "address",
          "name": "owner",
          "type": "address"
        },
        {
          "indexed": true,
          "internalType": "address",
          "name": "spender",
          "type": "address"
        },
        {
          "indexed": false,
          "internalType": "uint256",
          "name": "value",
          "type": "uint256"
        }
      ],
      "name": "Approval",
      "type": "event"
    },
    {
      "anonymous": false,
      "inputs": [
        {
          "indexed": true,
          "internalType": "address",
          "name": "newMinter",
          "type": "address"
        }
      ],
      "name": "MinterUpdated",
      "type": "event"
    },
    {
      "anonymous": false,
      "inputs": [
        {
          "indexed": true,
          "internalType": "address",
          "name": "from",
          "type": "address"
        },
        {
          "indexed": true,
          "internalType": "address",
          "name": "to",
          "type": "address"
        },
        {
          "indexed": false,
          "internalType": "uint256",
          "name": "value",
          "type": "uint256"
        }
      ],
      "name": "Transfer",
      "type": "event"
    },
    {
      "inputs": [
        {
          "internalType": "address",
          "name": "",
          "type": "address"
        },
        {
          "internalType": "address",
          "name": "",
          "type": "address"
        }
      ],
      "name": "allowance",
      "outputs": [
        {
          "internalType": "uint256",
          "name": "",
          "type": "uint256"
        }
      ],
      "stateMutability": "view",
      "type": "function"
    },
    {
      "inputs": [
        {
          "internalType": "address",
          "name": "spender",
          "type": "address"
        },
        {
          "internalType": "uint256",
          "name": "amount",
          "type": "uint256"
        }
      ],
      "name": "approve",
      "outputs": [
        {
          "internalType": "bool",
          "name": "",
          "type": "bool"
        }
      ],
      "stateMutability": "nonpayable",
      "type": "function"
    },
    {
      "inputs": [
        {
          "internalType": "address",
          "name": "",
          "type": "address"
        }
      ],
      "name": "balanceOf",
      "outputs": [
        {
          "internalType": "uint256",
          "name": "",
          "type": "uint256"
        }
      ],
      "stateMutability": "view",
      "type": "function"
    },
    {
      "inputs": [],
      "name": "decimals",
      "outputs": [
        {
          "internalType": "uint8",
          "name": "",
          "type": "uint8"
        }
      ],
      "stateMutability": "view",
      "type": "function"
    },
    {
      "inputs": [
        {
          "internalType": "address",
          "name": "to",
          "type": "address"
        },
        {
          "internalType": "uint256",
          "name": "amount",
          "type": "uint256"
        }
      ],
      "name": "mint",
      "outputs": [],
      "stateMutability": "nonpayable",
      "type": "function"
    },
    {
      "inputs": [],
      "name": "minter",
      "outputs": [
        {
          "internalType": "address",
          "name": "",
          "type": "address"
        }
      ],
      "stateMutability": "view",
      "type": "function"
    },
    {
      "inputs": [],
      "name": "name",
      "outputs": [
        {
          "internalType": "string",
          "name": "",
          "type": "string"
        }
      ],
      "stateMutability": "view",
      "type": "function"
    },
    {
      "inputs": [],
      "name": "owner",
      "outputs": [
        {
          "internalType": "address",
          "name": "",
          "type": "address"
        }
      ],
      "stateMutability": "view",
      "type": "function"
    },
    {
      "inputs": [
        {
          "internalType": "address",
          "name": "newMinter",
          "type": "address"
        }
      ],
      "name": "setMinter",
      "outputs": [],
      "stateMutability": "nonpayable",
      "type": "function"
    },
    {
      "inputs": [],
      "name": "symbol",
      "outputs": [
        {
          "internalType": "string",
          "name": "",
          "type": "string"
        }
      ],
      "stateMutability": "view",
      "type": "function"
    },
    {
      "inputs": [],
      "name": "totalSupply",
      "outputs": [
        {
          "internalType": "uint256",
          "name": "",
          "type": "uint256"
        }
      ],
      "stateMutability": "view",
      "type": "function"
    },
    {
      "inputs": [
        {
          "internalType": "address",
          "name": "to",
          "type": "address"
        },
        {
          "internalType": "uint256",
          "name": "amount",
          "type": "uint256"
        }
      ],
      "name": "transfer",
      "outputs": [
        {
          "internalType": "bool",
          "name": "",
          "type": "bool"
        }
      ],
      "stateMutability": "nonpayable",
      "type": "function"
    },
    {
      "inputs": [
        {
          "internalType": "address",
          "name": "from",
          "type": "address"
        },
        {
          "internalType": "address",
          "name": "to",
          "type": "address"
        },
        {
          "internalType": "uint256",
          "name": "amount",
          "type": "uint256"
        }
      ],
      "name": "transferFrom",
      "outputs": [
        {
          "internalType": "bool",
          "name": "",
          "type": "bool"
        }
      ],
      "stateMutability": "nonpayable",
      "type": "function"
    }
  ],
  "bytecode": "0x60e0604052600d60a09081526c10d85c989bdb8810dc99591a5d609a1b60c0525f9061002b90826101bc565b5060408051808201909152600381526210d0d560ea1b602082015260019061005390826101bc565b506012608052348015610064575f5ffd5b50604051610b79380380610b7983398101604081905261008391610291565b6001600160a01b0382166100c75760405162461bcd60e51b815260206004820152600760248201526606f776e657220360cc1b604482015260640160405180910390fd5b600680546001600160a01b038085166001600160a01b0319928316179092556005805492841692909116821790556040517fad0f299ec81a386c98df0ac27dae11dd020ed1b56963c53a7292e7a3a314539a905f90a250506102c2565b634e487b7160e01b5f52604160045260245ffd5b600181811c9082168061014c57607f821691505b60208210810361016a57634e487b7160e01b5f52602260045260245ffd5b50919050565b601f8211156101b757805f5260205f20601f840160051c810160208510156101955750805b601f840160051c820191505b818110156101b4575f81556001016101a1565b50505b505050565b81516001600160401b038111156101d5576101d5610124565b6101e9816101e38454610138565b84610170565b6020601f82116001811461021b575f83156102045750848201515b5f19600385901b1c1916600184901b1784556101b4565b5f84815260208120601f198516915b8281101561024a578785015182556020948501946001909201910161022a565b508482101561026757868401515f19600387901b60f8161c191681555b50505050600190811b01905550565b80516001600160a01b038116811461028c575f5ffd5b919050565b5f5f604083850312156102a2575f5ffd5b6102ab83610276565b91506102b960208401610276565b90509250929050565b60805161089f6102da5f395f61016a015261089f5ff3fe608060405234801561000f575f5ffd5b50600436106100cb575f3560e01c806340c10f191161008857806395d89b411161006357806395d89b41146101e5578063a9059cbb146101ed578063dd62ed3e14610200578063fca3b5aa1461022a575f5ffd5b806340c10f191461019e57806370a08231146101b35780638da5cb5b146101d2575f5ffd5b806306fdde03146100cf57806307546172146100ed578063095ea7b31461011857806318160ddd1461013b57806323b872dd14610152578063313ce56714610165575b5f5ffd5b6100d761023d565b6040516100e491906106f4565b60405180910390f35b600554610100906001600160a01b031681565b6040516001600160a01b0390911681526020016100e4565b61012b610126366004610744565b6102c8565b60405190151581526020016100e4565b61014460025481565b6040519081526020016100e4565b61012b61016036600461076c565b610334565b61018c7f000000000000000000000000000000000000000000000000000000000000000081565b60405160ff90911681526020016100e4565b6101b16101ac366004610744565b610427565b005b6101446101c13660046107a6565b60036020525f908152604090205481565b600654610100906001600160a01b031681565b6100d7610537565b61012b6101fb366004610744565b610544565b61014461020e3660046107c6565b600460209081525f928352604080842090915290825290205481565b6101b16102383660046107a6565b610559565b5f8054610249906107f7565b80601f0160208091040260200160405190810160405280929190818152602001828054610275906107f7565b80156102c05780601f10610297576101008083540402835291602001916102c0565b820191905f5260205f20905b8154815290600101906020018083116102a357829003601f168201915b505050505081565b335f8181526004602090815260408083206001600160a01b038716808552925280832085905551919290917f8c5be1e5ebec7d5bd14f71427d1e84f3dd0314c0f7b2291e5b200ac8c7c3b925906103229086815260200190565b60405180910390a35060015b92915050565b6001600160a01b0383165f908152600460209081526040808320338452909152812054828110156103a55760405162461bcd60e51b8152602060048201526016602482015275696e73756666696369656e7420616c6c6f77616e636560501b60448201526064015b60405180910390fd5b5f198114610411576103b78382610843565b6001600160a01b0386165f81815260046020908152604080832033808552908352928190208590555193845290927f8c5be1e5ebec7d5bd14f71427d1e84f3dd0314c0f7b2291e5b200ac8c7c3b925910160405180910390a35b61041c8585856105e9565b506001949350505050565b6005546001600160a01b0316331461046f5760405162461bcd60e51b815260206004820152600b60248201526a37b7363c9036b4b73a32b960a91b604482015260640161039c565b6001600160a01b0382166104b15760405162461bcd60e51b815260206004820152600960248201526806d696e7420746f20360bc1b604482015260640161039c565b8060025f8282546104c29190610856565b90915550506001600160a01b0382165f90815260036020526040812080548392906104ee908490610856565b90915550506040518181526001600160a01b038316905f907fddf252ad1be2c89b69c2b068fc378daa952ba7f163c4a11628f55a4df523b3ef9060200160405180910390a35050565b60018054610249906107f7565b5f6105503384846105e9565b50600192915050565b6006546001600160a01b031633146105a05760405162461bcd60e51b815260206004820152600a60248201526937b7363c9037bbb732b960b11b604482015260640161039c565b600580546001600160a01b0319166001600160a01b0383169081179091556040517fad0f299ec81a386c98df0ac27dae11dd020ed1b56963c53a7292e7a3a314539a905f90a250565b6001600160a01b0382166106285760405162461bcd60e51b815260040161039c906020808252600490820152630746f20360e41b604082015260600190565b6001600160a01b0383165f90815260036020526040902054818110156106875760405162461bcd60e51b8152602060048201526014602482015273696e73756666696369656e742062616c616e636560601b604482015260640161039c565b6001600160a01b038085165f8181526003602052604080822086860390559286168082529083902080548601905591517fddf252ad1be2c89b69c2b068fc378daa952ba7f163c4a11628f55a4df523b3ef906106e69086815260200190565b60405180910390a350505050565b602081525f82518060208401528060208501604085015e5f604082850101526040601f19601f83011684010191505092915050565b80356001600160a01b038116811461073f575f5ffd5b919050565b5f5f60408385031215610755575f5ffd5b61075e83610729565b946020939093013593505050565b5f5f5f6060848603121561077e575f5ffd5b61078784610729565b925061079560208501610729565b929592945050506040919091013590565b5f602082840312156107b6575f5ffd5b6107bf82610729565b9392505050565b5f5f604083850312156107d7575f5ffd5b6107e083610729565b91506107ee60208401610729565b90509250929050565b600181811c9082168061080b57607f821691505b60208210810361082957634e487b7160e01b5f52602260045260245ffd5b50919050565b634e487b7160e01b5f52601160045260245ffd5b8181038181111561032e5761032e61082f565b8082018082111561032e5761032e61082f56fea264697066735822122049a3fabfe4b9c14187c6a661b34c36f420e49ad05ee0c1e4d09e2ce805f5fa8464736f6c634300081c0033",
  "linkReferences": {},
  "deployedLinkReferences": {},
  "immutableReferences": {
    "11": [
      {
        "length": 32,
        "start": 362
      }
    ]
  },
  "inputSourceName": "project/contracts/CarbonCreditToken.sol",
  "buildInfoId": "solc-0_8_28-fd0d159a9c79eca5dd15d5524dfdff32cdadb4a2"
}