{
  "_format": "hh3-artifact-1",
  "contractName": "CarbonCreditToken",
  "sourceName": "contracts/CarbonCreditToken.sol",
  "abi": [
    {
      "inputs": [
        {
          "internalType": "address",
          "name": "initialOwner",
          "type": "address"
        },
        {
          "internalType": "address",
          "name": "initialMinter",
          "type": "address"
        }
      ],
      "stateMutability": "nonpayable",
      "type": "constructor"
    },
    {
      "anonymous": false,
      "inputs": [
        {
          "indexed": true,
          "internalType": "address",
          "name": "owner",
          "type": "address"
        },
        {
          "indexed": true,
          "internalType": "address",
          "name": "spender",
          "type": "address"
        },
        {
          "indexed": false,
          "internalType": "uint256",
          "name": "value",
          "type": "uint256"
        }
      ],
      "name": "Approval",
      "type": "event"
    },
    {
      "anonymous": false,
      "inputs": [
        {
          "indexed": true,
          "internalType": "address",
          "name": "from",
          "type": "address"
        },
        {
          "indexed": false,
          "internalType": "uint256",
          "name": "value",
          "type": "uint256"
        }
      ],
      "name": "Burn",
      "type": "event"
    },
    {
      "anonymous": false,
      "inputs": [
        {
          "indexed": true,
          "internalType": "address",
          "name": "newMinter",
          "type": "address"
        }
      ],
      "name": "MinterUpdated",
      "type": "event"
    },
    {
      "anonymous": false,
      "inputs": [
        {
          "indexed": true,
          "internalType": "address",
          "name": "from",
          "type": "address"
        },
        {
          "indexed": true,
          "internalType": "address",
          "name": "to",
          "type": "address"
        },
        {
          "indexed": false,
          "internalType": "uint256",
          "name": "value",
          "type": "uint256"
        }
      ],
      "name": "Transfer",
      "type": "event"
    },
    {
      "inputs": [
        {
          "internalType": "address",
          "name": "",
          "type": "address"
        },
        {
          "internalType": "address",
          "name": "",
          "type": "address"
        }
      ],
      "name": "allowance",
      "outputs": [
        {
          "internalType": "uint256",
          "name": "",
          "type": "uint256"
        }
      ],
      "stateMutability": "view",
      "type": "function"
    },
    {
      "inputs": [
        {
          "internalType": "address",
          "name": "spender",
          "type": "address"
        },
        {
          "internalType": "uint256",
          "name": "amount",
          "type": "uint256"
        }
      ],
      "name": "approve",
      "outputs": [
        {
          "internalType": "bool",
          "name": "",
          "type": "bool"
        }
      ],
      "stateMutability": "nonpayable",
      "type": "function"
    },
    {
      "inputs": [
        {
          "internalType": "address",
          "name": "",
          "type": "address"
        }
      ],
      "name": "balanceOf",
      "outputs": [
        {
          "internalType": "uint256",
          "name": "",
          "type": "uint256"
        }
      ],
      "stateMutability": "view",
      "type": "function"
    },
    {
      "inputs": [
        {
          "internalType": "uint256",
          "name": "amount",
          "type": "uint256"
        }
      ],
      "name": "burn",
      "outputs": [],
      "stateMutability": "nonpayable",
      "type": "function"
    },
    {
      "inputs": [
        {
          "internalType": "address",
          "name": "from",
          "type": "address"
        },
        {
          "internalType": "uint256",
          "name": "amount",
          "type": "uint256"
        }
      ],
      "name": "burnFrom",
      "outputs": [],
      "stateMutability": "nonpayable",
      "type": "function"
    },
    {
      "inputs": [],
      "name": "decimals",
      "outputs": [
        {
          "internalType": "uint8",
          "name": "",
          "type": "uint8"
        }
      ],
      "stateMutability": "view",
      "type": "function"
    },
    {
      "inputs": [
        {
          "internalType": "address",
          "name": "to",
          "type": "address"
        },
        {
          "internalType": "uint256",
          "name": "amount",
          "type": "uint256"
        }
      ],
      "name": "mint",
      "outputs": [],
      "stateMutability": "nonpayable",
      "type": "function"
    },
    {
      "inputs": [],
      "name": "minter",
      "outputs": [
        {
          "internalType": "address",
          "name": "",
          "type": "address"
        }
      ],
      "stateMutability": "view",
      "type": "function"
    },
    {
      "inputs": [],
      "name": "name",
      "outputs": [
        {
          "internalType": "string",
          "name": "",
          "type": "string"
        }
      ],
      "stateMutability": "view",
      "type": "function"
    },
    {
      "inputs": [],
      "name": "owner",
      "outputs": [
        {
          "internalType": "address",
          "name": "",
          "type": "address"
        }
      ],
      "stateMutability": "view",
      "type": "function"
    },
    {
      "inputs": [
        {
          "internalType": "address",
          "name": "newMinter",
          "type": "address"
        }
      ],
      "name": "setMinter",
      "outputs": [],
      "stateMutability": "nonpayable",
      "type": "function"
    },
    {
      "inputs": [],
      "name": "symbol",
      "outputs": [
        {
          "internalType": "string",
          "name": "",
          "type": "string"
        }
      ],
      "stateMutability": "view",
      "type": "function"
    },
    {
      "inputs": [],
      "name": "totalSupply",
      "outputs": [
        {
          "internalType": "uint256",
          "name": "",
          "type": "uint256"
        }
      ],
      "stateMutability": "view",
      "type": "function"
    },
    {
      "inputs": [
        {
          "internalType": "address",
          "name": "to",
          "type": "address"
        },
        {
          "internalType": "uint256",
          "name": "amount",
          "type": "uint256"
        }
      ],
      "name": "transfer",
      "outputs": [
        {
          "internalType": "bool",
          "name": "",
          "type": "bool"
        }
      ],
      "stateMutability": "nonpayable",
      "type": "function"
    },
    {
      "inputs": [
        {
          "internalType": "address",
          "name": "from",
          "type": "address"
        },
        {
          "internalType": "address",
          "name": "to",
          "type": "address"
        },
        {
          "internalType": "uint256",
          "name": "amount",
          "type": "uint256"
        }
      ],
      "name": "transferFrom",
      "outputs": [
        {
          "internalType": "bool",
          "name": "",
          "type": "bool"
        }
      ],
      "stateMutability": "nonpayable",
      "type": "function"
    }
  ],
  "bytecode": "0x60e0604052600d60a09081526c10d85c989bdb8810dc99591a5d609a1b60c0525f9061002b90826101bc565b5060408051808201909152600381526210d0d560ea1b602082015260019061005390826101bc565b506012608052348015610064575f5ffd5b50604051610e2b380380610e2b83398101604081905261008391610291565b6001600160a01b0382166100c75760405162461bcd60e51b815260206004820152600760248201526606f776e657220360cc1b604482015260640160405180910390fd5b600680546001600160a01b038085166001600160a01b0319928316179092556005805492841692909116821790556040517fad0f299ec81a386c98df0ac27dae11dd020ed1b56963c53a7292e7a3a314539a905f90a250506102c2565b634e487b7160e01b5f52604160045260245ffd5b600181811c9082168061014c57607f821691505b60208210810361016a57634e487b7160e01b5f52602260045260245ffd5b50919050565b601f8211156101b757805f5260205f20601f840160051c810160208510156101955750805b601f840160051c820191505b818110156101b4575f81556001016101a1565b50505b505050565b81516001600160401b038111156101d5576101d5610124565b6101e9816101e38454610138565b84610170565b6020601f82116001811461021b575f83156102045750848201515b5f19600385901b1c1916600184901b1784556101b4565b5f84815260208120601f198516915b8281101561024a578785015182556020948501946001909201910161022a565b508482101561026757868401515f19600387901b60f8161c191681555b50505050600190811b01905550565b80516001600160a01b038116811461028c575f5ffd5b919050565b5f5f604083850312156102a2575f5ffd5b6102ab83610276565b91506102b960208401610276565b90509250929050565b608051610b516102da5f395f61018f0152610b515ff3fe608060405234801561000f575f5ffd5b50600436106100f0575f3560e01c806342966c681161009357806395d89b411161006357806395d89b4114610230578063a9059cbb14610238578063dd62ed3e1461024b578063fca3b5aa14610275575f5ffd5b806342966c68146101d857806370a08231146101eb57806379cc67901461020a5780638da5cb5b1461021d575f5ffd5b806318160ddd116100ce57806318160ddd1461016057806323b872dd14610177578063313ce5671461018a57806340c10f19146101c3575f5ffd5b806306fdde03146100f45780630754617214610112578063095ea7b31461013d575b5f5ffd5b6100fc610288565b6040516101099190610941565b60405180910390f35b600554610125906001600160a01b031681565b6040516001600160a01b039091168152602001610109565b61015061014b366004610991565b610313565b6040519015158152602001610109565b61016960025481565b604051908152602001610109565b6101506101853660046109b9565b61037f565b6101b17f000000000000000000000000000000000000000000000000000000000000000081565b60405160ff9091168152602001610109565b6101d66101d1366004610991565b610472565b005b6101d66101e63660046109f3565b61056f565b6101696101f9366004610a0a565b60036020525f908152604090205481565b6101d6610218366004610991565b61061c565b600654610125906001600160a01b031681565b6100fc6107be565b610150610246366004610991565b6107cb565b610169610259366004610a2a565b600460209081525f928352604080842090915290825290205481565b6101d6610283366004610a0a565b6107e0565b5f805461029490610a5b565b80601f01602080910402602001604051908101604052809291908181526020018280546102c090610a5b565b801561030b5780601f106102e25761010080835404028352916020019161030b565b820191905f5260205f20905b8154815290600101906020018083116102ee57829003601f168201915b505050505081565b335f8181526004602090815260408083206001600160a01b038716808552925280832085905551919290917f8c5be1e5ebec7d5bd14f71427d1e84f3dd0314c0f7b2291e5b200ac8c7c3b9259061036d9086815260200190565b60405180910390a35060015b92915050565b6001600160a01b0383165f908152600460209081526040808320338452909152812054828110156103f05760405162461bcd60e51b8152602060048201526016602482015275696e73756666696369656e7420616c6c6f77616e636560501b60448201526064015b60405180910390fd5b5f19811461045c576104028382610aa7565b6001600160a01b0386165f81815260046020908152604080832033808552908352928190208590555193845290927f8c5be1e5ebec7d5bd14f71427d1e84f3dd0314c0f7b2291e5b200ac8c7c3b925910160405180910390a35b610467858585610870565b506001949350505050565b6005546001600160a01b031633146104ba5760405162461bcd60e51b815260206004820152600b60248201526a37b7363c9036b4b73a32b960a91b60448201526064016103e7565b6001600160a01b0382166104fc5760405162461bcd60e51b815260206004820152600960248201526806d696e7420746f20360bc1b60448201526064016103e7565b8060025f82825461050d9190610aba565b90915550506001600160a01b0382165f9081526003602052604081208054839290610539908490610aba565b90915550506040518181526001600160a01b038316905f905f516020610afc5f395f51905f529060200160405180910390a35050565b335f9081526003602052604090205481111561059d5760405162461bcd60e51b81526004016103e790610acd565b335f818152600360205260409081902080548490039055600280548490039055517fcc16f5dbb4873280815c1ee09dbd06736cffcc184412cf7a71a0fdb75d397ca5906105ed9084815260200190565b60405180910390a26040518181525f9033905f516020610afc5f395f51905f529060200160405180910390a350565b6001600160a01b0382165f908152600460209081526040808320338452909152902054818110156106885760405162461bcd60e51b8152602060048201526016602482015275696e73756666696369656e7420616c6c6f77616e636560501b60448201526064016103e7565b6001600160a01b0383165f908152600360205260409020548211156106bf5760405162461bcd60e51b81526004016103e790610acd565b5f19811461072b576106d18282610aa7565b6001600160a01b0384165f81815260046020908152604080832033808552908352928190208590555193845290927f8c5be1e5ebec7d5bd14f71427d1e84f3dd0314c0f7b2291e5b200ac8c7c3b925910160405180910390a35b6001600160a01b0383165f818152600360205260409081902080548590039055600280548590039055517fcc16f5dbb4873280815c1ee09dbd06736cffcc184412cf7a71a0fdb75d397ca5906107849085815260200190565b60405180910390a26040518281525f906001600160a01b038516905f516020610afc5f395f51905f529060200160405180910390a3505050565b6001805461029490610a5b565b5f6107d7338484610870565b50600192915050565b6006546001600160a01b031633146108275760405162461bcd60e51b815260206004820152600a60248201526937b7363c9037bbb732b960b11b60448201526064016103e7565b600580546001600160a01b0319166001600160a01b0383169081179091556040517fad0f299ec81a386c98df0ac27dae11dd020ed1b56963c53a7292e7a3a314539a905f90a250565b6001600160a01b0382166108af5760405162461bcd60e51b81526004016103e7906020808252600490820152630746f20360e41b604082015260600190565b6001600160a01b0383165f90815260036020526040902054818110156108e75760405162461bcd60e51b81526004016103e790610acd565b6001600160a01b038085165f8181526003602052604080822086860390559286168082529083902080548601905591515f516020610afc5f395f51905f52906109339086815260200190565b60405180910390a350505050565b602081525f82518060208401528060208501604085015e5f604082850101526040601f19601f83011684010191505092915050565b80356001600160a01b038116811461098c575f5ffd5b919050565b5f5f604083850312156109a2575f5ffd5b6109ab83610976565b946020939093013593505050565b5f5f5f606084860312156109cb575f5ffd5b6109d484610976565b92506109e260208501610976565b929592945050506040919091013590565b5f60208284031215610a03575f5ffd5b5035919050565b5f60208284031215610a1a575f5ffd5b610a2382610976565b9392505050565b5f5f60408385031215610a3b575f5ffd5b610a4483610976565b9150610a5260208401610976565b90509250929050565b600181811c90821680610a6f57607f821691505b602082108103610a8d57634e487b7160e01b5f52602260045260245ffd5b50919050565b634e487b7160e01b5f52601160045260245ffd5b8181038181111561037957610379610a93565b8082018082111561037957610379610a93565b602080825260149082015273696e73756666696369656e742062616c616e636560601b60408201526060019056feddf252ad1be2c89b69c2b068fc378daa952ba7f163c4a11628f55a4df523b3efa2646970667358221220bb1918eee87b229f4c1e79515bfc4c048026c430464376934f03bdda778e490a64736f6c634300081c0033",
  "linkReferences": {},
  "deployedLinkReferences": {},
  "immutableReferences": {
    "11": [
      {
        "length": 32,
        "start": 399
      }
    ]
  },
  "inputSourceName": "project/contracts/CarbonCreditToken.sol",
  "buildInfoId": "solc-0_8_28-252539e39e0aa8faad8298afbe608f3cb29ec370"
}