{
  "_format": "hh3-artifact-1",
  "contractName": "EcoBadgeNFT",
  "sourceName": "contracts/EcoBadgeNFT.sol",
  "abi": [
    {
      "inputs": [
        {
          "internalType": "string",
          "name": "base",
          "type": "string"
        }
      ],
      "stateMutability": "nonpayable",
      "type": "constructor"
    },
    {
      "anonymous": false,
      "inputs": [
        {
          "indexed": true,
          "internalType": "address",
          "name": "owner",
          "type": "address"
        },
        {
          "indexed": true,
          "internalType": "address",
          "name": "spender",
          "type": "address"
        },
        {
          "indexed": true,
          "internalType": "uint256",
          "name": "id",
          "type": "uint256"
        }
      ],
      "name": "Approval",
      "type": "event"
    },
    {
      "anonymous": false,
      "inputs": [
        {
          "indexed": true,
          "internalType": "address",
          "name": "owner",
          "type": "address"
        },
        {
          "indexed": true,
          "internalType": "address",
          "name": "operator",
          "type": "address"
        },
        {
          "indexed": false,
          "internalType": "bool",
          "name": "approved",
          "type": "bool"
        }
      ],
      "name": "ApprovalForAll",
      "type": "event"
    },
    {
      "anonymous": false,
      "inputs": [
        {
          "indexed": true,
          "internalType": "address",
          "name": "from",
          "type": "address"
        },
        {
          "indexed": true,
          "internalType": "address",
          "name": "to",
          "type": "address"
        },
        {
          "indexed": true,
          "internalType": "uint256",
          "name": "id",
          "type": "uint256"
        }
      ],
      "name": "Transfer",
      "type": "event"
    },
    {
      "inputs": [
        {
          "internalType": "address",
          "name": "spender",
          "type": "address"
        },
        {
          "internalType": "uint256",
          "name": "id",
          "type": "uint256"
        }
      ],
      "name": "approve",
      "outputs": [],
      "stateMutability": "nonpayable",
      "type": "function"
    },
    {
      "inputs": [
        {
          "internalType": "address",
          "name": "account",
          "type": "address"
        }
      ],
      "name": "balanceOf",
      "outputs": [
        {
          "internalType": "uint256",
          "name": "",
          "type": "uint256"
        }
      ],
      "stateMutability": "view",
      "type": "function"
    },
    {
      "inputs": [],
      "name": "baseURI",
      "outputs": [
        {
          "internalType": "string",
          "name": "",
          "type": "string"
        }
      ],
      "stateMutability": "view",
      "type": "function"
    },
    {
      "inputs": [
        {
          "internalType": "uint256",
          "name": "",
          "type": "uint256"
        }
      ],
      "name": "getApproved",
      "outputs": [
        {
          "internalType": "address",
          "name": "",
          "type": "address"
        }
      ],
      "stateMutability": "view",
      "type": "function"
    },
    {
      "inputs": [
        {
          "internalType": "address",
          "name": "",
          "type": "address"
        },
        {
          "internalType": "address",
          "name": "",
          "type": "address"
        }
      ],
      "name": "isApprovedForAll",
      "outputs": [
        {
          "internalType": "bool",
          "name": "",
          "type": "bool"
        }
      ],
      "stateMutability": "view",
      "type": "function"
    },
    {
      "inputs": [],
      "name": "name",
      "outputs": [
        {
          "internalType": "string",
          "name": "",
          "type": "string"
        }
      ],
      "stateMutability": "view",
      "type": "function"
    },
    {
      "inputs": [],
      "name": "nextId",
      "outputs": [
        {
          "internalType": "uint256",
          "name": "",
          "type": "uint256"
        }
      ],
      "stateMutability": "view",
      "type": "function"
    },
    {
      "inputs": [],
      "name": "owner",
      "outputs": [
        {
          "internalType": "address",
          "name": "",
          "type": "address"
        }
      ],
      "stateMutability": "view",
      "type": "function"
    },
    {
      "inputs": [
        {
          "internalType": "uint256",
          "name": "id",
          "type": "uint256"
        }
      ],
      "name": "ownerOf",
      "outputs": [
        {
          "internalType": "address",
          "name": "",
          "type": "address"
        }
      ],
      "stateMutability": "view",
      "type": "function"
    },
    {
      "inputs": [
        {
          "internalType": "address",
          "name": "to",
          "type": "address"
        }
      ],
      "name": "safeMint",
      "outputs": [
        {
          "internalType": "uint256",
          "name": "",
          "type": "uint256"
        }
      ],
      "stateMutability": "nonpayable",
      "type": "function"
    },
    {
      "inputs": [
        {
          "internalType": "address",
          "name": "operator",
          "type": "address"
        },
        {
          "internalType": "bool",
          "name": "approved",
          "type": "bool"
        }
      ],
      "name": "setApprovalForAll",
      "outputs": [],
      "stateMutability": "nonpayable",
      "type": "function"
    },
    {
      "inputs": [
        {
          "internalType": "string",
          "name": "base",
          "type": "string"
        }
      ],
      "name": "setBaseURI",
      "outputs": [],
      "stateMutability": "nonpayable",
      "type": "function"
    },
    {
      "inputs": [],
      "name": "symbol",
      "outputs": [
        {
          "internalType": "string",
          "name": "",
          "type": "string"
        }
      ],
      "stateMutability": "view",
      "type": "function"
    },
    {
      "inputs": [
        {
          "internalType": "address",
          "name": "owner_",
          "type": "address"
        },
        {
          "internalType": "uint256",
          "name": "index",
          "type": "uint256"
        }
      ],
      "name": "tokenOfOwnerByIndex",
      "outputs": [
        {
          "internalType": "uint256",
          "name": "",
          "type": "uint256"
        }
      ],
      "stateMutability": "view",
      "type": "function"
    },
    {
      "inputs": [
        {
          "internalType": "uint256",
          "name": "id",
          "type": "uint256"
        }
      ],
      "name": "tokenURI",
      "outputs": [
        {
          "internalType": "string",
          "name": "",
          "type": "string"
        }
      ],
      "stateMutability": "view",
      "type": "function"
    },
    {
      "inputs": [
        {
          "internalType": "address",
          "name": "from",
          "type": "address"
        },
        {
          "internalType": "address",
          "name": "to",
          "type": "address"
        },
        {
          "internalType": "uint256",
          "name": "id",
          "type": "uint256"
        }
      ],
      "name": "transferFrom",
      "outputs": [],
      "stateMutability": "nonpayable",
      "type": "function"
    }
  ],
  "bytecode": "0x60c0604052600860809081526745636f426164676560c01b60a0525f90610026908261013c565b5060408051808201909152600481526322a1a7a160e11b602082015260019061004f908261013c565b506001600955348015610060575f5ffd5b506040516111f43803806111f483398101604081905261007f916101f6565b600380546001600160a01b03191633179055600261009d828261013c565b50506102a6565b634e487b7160e01b5f52604160045260245ffd5b600181811c908216806100cc57607f821691505b6020821081036100ea57634e487b7160e01b5f52602260045260245ffd5b50919050565b601f82111561013757805f5260205f20601f840160051c810160208510156101155750805b601f840160051c820191505b81811015610134575f8155600101610121565b50505b505050565b81516001600160401b03811115610155576101556100a4565b6101698161016384546100b8565b846100f0565b6020601f82116001811461019b575f83156101845750848201515b5f19600385901b1c1916600184901b178455610134565b5f84815260208120601f198516915b828110156101ca57878501518255602094850194600190920191016101aa565b50848210156101e757868401515f19600387901b60f8161c191681555b50505050600190811b01905550565b5f60208284031215610206575f5ffd5b81516001600160401b0381111561021b575f5ffd5b8201601f8101841361022b575f5ffd5b80516001600160401b03811115610244576102446100a4565b604051601f8201601f19908116603f011681016001600160401b0381118282101715610272576102726100a4565b604052818152828201602001861015610289575f5ffd5b8160208401602083015e5f91810160200191909152949350505050565b610f41806102b35f395ff3fe608060405234801561000f575f5ffd5b50600436106100fb575f3560e01c80636352211e1161009357806395d89b411161006357806395d89b4114610216578063a22cb4651461021e578063c87b56dd14610231578063e985e9c514610244575f5ffd5b80636352211e146101d55780636c0360eb146101e857806370a08231146101f05780638da5cb5b14610203575f5ffd5b80632f745c59116100ce5780632f745c591461018557806340d097c3146101a657806355f804b3146101b957806361b8ce8c146101cc575f5ffd5b806306fdde03146100ff578063081812fc1461011d578063095ea7b31461015d57806323b872dd14610172575b5f5ffd5b610107610281565b6040516101149190610ade565b60405180910390f35b61014561012b366004610b13565b60076020525f90815260409020546001600160a01b031681565b6040516001600160a01b039091168152602001610114565b61017061016b366004610b40565b61030c565b005b610170610180366004610b68565b6103ee565b610198610193366004610b40565b6105ed565b604051908152602001610114565b6101986101b4366004610ba2565b61067a565b6101706101c7366004610bc2565b6107c7565b61019860095481565b6101456101e3366004610b13565b610820565b610107610871565b6101986101fe366004610ba2565b61087e565b600354610145906001600160a01b031681565b6101076108dc565b61017061022c366004610c30565b6108e9565b61010761023f366004610b13565b610954565b610271610252366004610c69565b600860209081525f928352604080842090915290825290205460ff1681565b6040519015158152602001610114565b5f805461028d90610c9a565b80601f01602080910402602001604051908101604052809291908181526020018280546102b990610c9a565b80156103045780601f106102db57610100808354040283529160200191610304565b820191905f5260205f20905b8154815290600101906020018083116102e757829003601f168201915b505050505081565b5f61031682610820565b9050336001600160a01b038216148061035157506001600160a01b0381165f90815260086020908152604080832033845290915290205460ff165b6103935760405162461bcd60e51b815260206004820152600e60248201526d1b9bdd08185d5d1a1bdc9a5e995960921b60448201526064015b60405180910390fd5b5f8281526007602052604080822080546001600160a01b0319166001600160a01b0387811691821790925591518593918516917f8c5be1e5ebec7d5bd14f71427d1e84f3dd0314c0f7b2291e5b200ac8c7c3b92591a4505050565b6103f781610820565b6001600160a01b0316836001600160a01b0316146104485760405162461bcd60e51b815260206004820152600e60248201526d333937b6903737ba1037bbb732b960911b604482015260640161038a565b6001600160a01b0382166104885760405162461bcd60e51b8152602060048201526007602482015266746f207a65726f60c81b604482015260640161038a565b336001600160a01b03841614806104b457505f818152600760205260409020546001600160a01b031633145b806104e157506001600160a01b0383165f90815260086020908152604080832033845290915290205460ff165b61051e5760405162461bcd60e51b815260206004820152600e60248201526d1b9bdd08185d5d1a1bdc9a5e995960921b604482015260640161038a565b5f81815260076020908152604080832080546001600160a01b03191690556001600160a01b038616835260059091528120805460019290610560908490610ce6565b90915550506001600160a01b0382165f90815260056020526040812080546001929061058d908490610cf9565b90915550505f8181526004602052604080822080546001600160a01b0319166001600160a01b0386811691821790925591518493918716917fddf252ad1be2c89b69c2b068fc378daa952ba7f163c4a11628f55a4df523b3ef91a4505050565b6001600160a01b0382165f90815260066020526040812054821061063f5760405162461bcd60e51b815260206004820152600960248201526834b73232bc1037b7b160b91b604482015260640161038a565b6001600160a01b0383165f90815260066020526040902080548390811061066857610668610d0c565b905f5260205f20015490505b92915050565b6003545f906001600160a01b031633146106c35760405162461bcd60e51b815260206004820152600a60248201526937b7363c9037bbb732b960b11b604482015260640161038a565b6001600160a01b0382166107035760405162461bcd60e51b8152602060048201526007602482015266746f207a65726f60c81b604482015260640161038a565b600980545f918261071383610d20565b909155505f81815260046020908152604080832080546001600160a01b0319166001600160a01b0389169081179091558352600590915281208054929350600192909190610762908490610cf9565b90915550506001600160a01b0383165f818152600660209081526040808320805460018101825590845291832090910184905551839291907fddf252ad1be2c89b69c2b068fc378daa952ba7f163c4a11628f55a4df523b3ef908290a490505b919050565b6003546001600160a01b0316331461080e5760405162461bcd60e51b815260206004820152600a60248201526937b7363c9037bbb732b960b11b604482015260640161038a565b600261081b828483610d97565b505050565b5f818152600460205260408120546001600160a01b0316806106745760405162461bcd60e51b815260206004820152600a6024820152691b9bdd081b5a5b9d195960b21b604482015260640161038a565b6002805461028d90610c9a565b5f6001600160a01b0382166108c15760405162461bcd60e51b81526020600482015260096024820152683d32b9379030b2323960b91b604482015260640161038a565b506001600160a01b03165f9081526005602052604090205490565b6001805461028d90610c9a565b335f8181526008602090815260408083206001600160a01b03871680855290835292819020805460ff191686151590811790915590519081529192917f17307eab39ab6107e8899845ad3d59bd9653f200f220920489ca2b5937696c31910160405180910390a35050565b5f818152600460205260409020546060906001600160a01b03166109a75760405162461bcd60e51b815260206004820152600a6024820152691b9bdd081b5a5b9d195960b21b604482015260640161038a565b60026109b2836109d9565b6040516020016109c3929190610e51565b6040516020818303038152906040529050919050565b6060815f036109ff5750506040805180820190915260018152600360fc1b602082015290565b815f5b8115610a285780610a1281610d20565b9150610a219050600a83610ee5565b9150610a02565b5f8167ffffffffffffffff811115610a4257610a42610d38565b6040519080825280601f01601f191660200182016040528015610a6c576020820181803683370190505b5090505b8415610ad657610a81600183610ce6565b9150610a8e600a86610ef8565b610a99906030610cf9565b60f81b818381518110610aae57610aae610d0c565b60200101906001600160f81b03191690815f1a905350610acf600a86610ee5565b9450610a70565b949350505050565b602081525f82518060208401528060208501604085015e5f604082850101526040601f19601f83011684010191505092915050565b5f60208284031215610b23575f5ffd5b5035919050565b80356001600160a01b03811681146107c2575f5ffd5b5f5f60408385031215610b51575f5ffd5b610b5a83610b2a565b946020939093013593505050565b5f5f5f60608486031215610b7a575f5ffd5b610b8384610b2a565b9250610b9160208501610b2a565b929592945050506040919091013590565b5f60208284031215610bb2575f5ffd5b610bbb82610b2a565b9392505050565b5f5f60208385031215610bd3575f5ffd5b823567ffffffffffffffff811115610be9575f5ffd5b8301601f81018513610bf9575f5ffd5b803567ffffffffffffffff811115610c0f575f5ffd5b856020828401011115610c20575f5ffd5b6020919091019590945092505050565b5f5f60408385031215610c41575f5ffd5b610c4a83610b2a565b915060208301358015158114610c5e575f5ffd5b809150509250929050565b5f5f60408385031215610c7a575f5ffd5b610c8383610b2a565b9150610c9160208401610b2a565b90509250929050565b600181811c90821680610cae57607f821691505b602082108103610ccc57634e487b7160e01b5f52602260045260245ffd5b50919050565b634e487b7160e01b5f52601160045260245ffd5b8181038181111561067457610674610cd2565b8082018082111561067457610674610cd2565b634e487b7160e01b5f52603260045260245ffd5b5f60018201610d3157610d31610cd2565b5060010190565b634e487b7160e01b5f52604160045260245ffd5b601f82111561081b57805f5260205f20601f840160051c81016020851015610d715750805b601f840160051c820191505b81811015610d90575f8155600101610d7d565b5050505050565b67ffffffffffffffff831115610daf57610daf610d38565b610dc383610dbd8354610c9a565b83610d4c565b5f601f841160018114610df4575f8515610ddd5750838201355b5f19600387901b1c1916600186901b178355610d90565b5f83815260208120601f198716915b82811015610e235786850135825560209485019460019092019101610e03565b5086821015610e3f575f1960f88860031b161c19848701351681555b505060018560011b0183555050505050565b5f5f8454610e5e81610c9a565b600182168015610e755760018114610e8a57610eb7565b60ff1983168652811515820286019350610eb7565b875f5260205f205f5b83811015610eaf57815488820152600190910190602001610e93565b505081860193505b50505083518060208601835e5f9101908152949350505050565b634e487b7160e01b5f52601260045260245ffd5b5f82610ef357610ef3610ed1565b500490565b5f82610f0657610f06610ed1565b50069056fea26469706673582212209bad239c18af030bd06739297b2d3a4b4775bb0686c3fce6af319bb2b0a62a7f64736f6c634300081c0033",
  "linkReferences": {},
  "deployedLinkReferences": {},
  "immutableReferences": {},
  "inputSourceName": "project/contracts/EcoBadgeNFT.sol",
  "buildInfoId": "solc-0_8_28-585f077bc770b86d7b9397f84f2de399169014e3"
}