{
  "_format": "hh3-artifact-1",
  "contractName": "CreditStaking",
  "sourceName": "contracts/CreditStaking.sol",
  "abi": [
    {
      "inputs": [
        {
          "internalType": "address",
          "name": "tokenAddress",
          "type": "address"
        },
        {
          "internalType": "uint256",
          "name": "initialRewardRate",
          "type": "uint256"
        }
      ],
      "stateMutability": "nonpayable",
      "type": "constructor"
    },
    {
      "anonymous": false,
      "inputs": [
        {
          "indexed": true,
          "internalType": "address",
          "name": "user",
          "type": "address"
        },
        {
          "indexed": false,
          "internalType": "uint256",
          "name": "amount",
          "type": "uint256"
        }
      ],
      "name": "RewardClaimed",
      "type": "event"
    },
    {
      "anonymous": false,
      "inputs": [
        {
          "indexed": true,
          "internalType": "address",
          "name": "user",
          "type": "address"
        },
        {
          "indexed": true,
          "internalType": "uint256",
          "name": "stakeId",
          "type": "uint256"
        },
        {
          "indexed": false,
          "internalType": "uint256",
          "name": "amount",
          "type": "uint256"
        },
        {
          "indexed": false,
          "internalType": "uint256",
          "name": "lockPeriod",
          "type": "uint256"
        }
      ],
      "name": "Staked",
      "type": "event"
    },
    {
      "anonymous": false,
      "inputs": [
        {
          "indexed": true,
          "internalType": "address",
          "name": "user",
          "type": "address"
        },
        {
          "indexed": true,
          "internalType": "uint256",
          "name": "stakeId",
          "type": "uint256"
        },
        {
          "indexed": false,
          "internalType": "uint256",
          "name": "amount",
          "type": "uint256"
        },
        {
          "indexed": false,
          "internalType": "uint256",
          "name": "reward",
          "type": "uint256"
        }
      ],
      "name": "Unstaked",
      "type": "event"
    },
    {
      "inputs": [],
      "name": "BASIS_POINTS",
      "outputs": [
        {
          "internalType": "uint256",
          "name": "",
          "type": "uint256"
        }
      ],
      "stateMutability": "view",
      "type": "function"
    },
    {
      "inputs": [],
      "name": "MAX_REWARD_RATE",
      "outputs": [
        {
          "internalType": "uint256",
          "name": "",
          "type": "uint256"
        }
      ],
      "stateMutability": "view",
      "type": "function"
    },
    {
      "inputs": [
        {
          "components": [
            {
              "internalType": "uint256",
              "name": "amount",
              "type": "uint256"
            },
            {
              "internalType": "uint256",
              "name": "timestamp",
              "type": "uint256"
            },
            {
              "internalType": "uint256",
              "name": "lockPeriod",
              "type": "uint256"
            },
            {
              "internalType": "bool",
              "name": "isLocked",
              "type": "bool"
            }
          ],
          "internalType": "struct CreditStaking.Stake",
          "name": "stakeData",
          "type": "tuple"
        }
      ],
      "name": "calculateReward",
      "outputs": [
        {
          "internalType": "uint256",
          "name": "",
          "type": "uint256"
        }
      ],
      "stateMutability": "view",
      "type": "function"
    },
    {
      "inputs": [],
      "name": "creditToken",
      "outputs": [
        {
          "internalType": "contract CarbonCreditToken",
          "name": "",
          "type": "address"
        }
      ],
      "stateMutability": "view",
      "type": "function"
    },
    {
      "inputs": [
        {
          "internalType": "address",
          "name": "user",
          "type": "address"
        },
        {
          "internalType": "uint256",
          "name": "index",
          "type": "uint256"
        }
      ],
      "name": "getStake",
      "outputs": [
        {
          "internalType": "uint256",
          "name": "amount",
          "type": "uint256"
        },
        {
          "internalType": "uint256",
          "name": "timestamp",
          "type": "uint256"
        },
        {
          "internalType": "uint256",
          "name": "lockPeriod",
          "type": "uint256"
        },
        {
          "internalType": "bool",
          "name": "isLocked",
          "type": "bool"
        },
        {
          "internalType": "uint256",
          "name": "pendingReward",
          "type": "uint256"
        }
      ],
      "stateMutability": "view",
      "type": "function"
    },
    {
      "inputs": [
        {
          "internalType": "address",
          "name": "user",
          "type": "address"
        }
      ],
      "name": "getStakeCount",
      "outputs": [
        {
          "internalType": "uint256",
          "name": "",
          "type": "uint256"
        }
      ],
      "stateMutability": "view",
      "type": "function"
    },
    {
      "inputs": [
        {
          "internalType": "address",
          "name": "user",
          "type": "address"
        }
      ],
      "name": "getTotalPendingRewards",
      "outputs": [
        {
          "internalType": "uint256",
          "name": "",
          "type": "uint256"
        }
      ],
      "stateMutability": "view",
      "type": "function"
    },
    {
      "inputs": [],
      "name": "minter",
      "outputs": [
        {
          "internalType": "address",
          "name": "",
          "type": "address"
        }
      ],
      "stateMutability": "view",
      "type": "function"
    },
    {
      "inputs": [],
      "name": "owner",
      "outputs": [
        {
          "internalType": "address",
          "name": "",
          "type": "address"
        }
      ],
      "stateMutability": "view",
      "type": "function"
    },
    {
      "inputs": [],
      "name": "rewardRate",
      "outputs": [
        {
          "internalType": "uint256",
          "name": "",
          "type": "uint256"
        }
      ],
      "stateMutability": "view",
      "type": "function"
    },
    {
      "inputs": [
        {
          "internalType": "address",
          "name": "newMinter",
          "type": "address"
        }
      ],
      "name": "setMinter",
      "outputs": [],
      "stateMutability": "nonpayable",
      "type": "function"
    },
    {
      "inputs": [
        {
          "internalType": "uint256",
          "name": "newRate",
          "type": "uint256"
        }
      ],
      "name": "setRewardRate",
      "outputs": [],
      "stateMutability": "nonpayable",
      "type": "function"
    },
    {
      "inputs": [
        {
          "internalType": "uint256",
          "name": "amount",
          "type": "uint256"
        },
        {
          "internalType": "uint256",
          "name": "lockPeriodInDays",
          "type": "uint256"
        }
      ],
      "name": "stake",
      "outputs": [],
      "stateMutability": "nonpayable",
      "type": "function"
    },
    {
      "inputs": [
        {
          "internalType": "address",
          "name": "",
          "type": "address"
        },
        {
          "internalType": "uint256",
          "name": "",
          "type": "uint256"
        }
      ],
      "name": "stakes",
      "outputs": [
        {
          "internalType": "uint256",
          "name": "amount",
          "type": "uint256"
        },
        {
          "internalType": "uint256",
          "name": "timestamp",
          "type": "uint256"
        },
        {
          "internalType": "uint256",
          "name": "lockPeriod",
          "type": "uint256"
        },
        {
          "internalType": "bool",
          "name": "isLocked",
          "type": "bool"
        }
      ],
      "stateMutability": "view",
      "type": "function"
    },
    {
      "inputs": [
        {
          "internalType": "address",
          "name": "",
          "type": "address"
        }
      ],
      "name": "totalRewards",
      "outputs": [
        {
          "internalType": "uint256",
          "name": "",
          "type": "uint256"
        }
      ],
      "stateMutability": "view",
      "type": "function"
    },
    {
      "inputs": [],
      "name": "totalRewardsDistributed",
      "outputs": [
        {
          "internalType": "uint256",
          "name": "",
          "type": "uint256"
        }
      ],
      "stateMutability": "view",
      "type": "function"
    },
    {
      "inputs": [
        {
          "internalType": "address",
          "name": "",
          "type": "address"
        }
      ],
      "name": "totalStaked",
      "outputs": [
        {
          "internalType": "uint256",
          "name": "",
          "type": "uint256"
        }
      ],
      "stateMutability": "view",
      "type": "function"
    },
    {
      "inputs": [],
      "name": "totalStakedAmount",
      "outputs": [
        {
          "internalType": "uint256",
          "name": "",
          "type": "uint256"
        }
      ],
      "stateMutability": "view",
      "type": "function"
    },
    {
      "inputs": [
        {
          "internalType": "uint256",
          "name": "stakeIndex",
          "type": "uint256"
        }
      ],
      "name": "unstake",
      "outputs": [],
      "stateMutability": "nonpayable",
      "type": "function"
    }
  ],
  "bytecode": "0x608060405234801561000f575f5ffd5b5060405161115238038061115283398101604081905261002e916100f3565b6001600160a01b03821661007b5760405162461bcd60e51b815260206004820152600f60248201526e0746f6b656e2061646472657373203608c1b60448201526064015b60405180910390fd5b6113888111156100bd5760405162461bcd60e51b815260206004820152600d60248201526c0e4c2e8ca40e8dede40d0d2ced609b1b6044820152606401610072565b60018054336001600160a01b0319918216179091555f80549091166001600160a01b03939093169290921790915560035561012a565b5f5f60408385031215610104575f5ffd5b82516001600160a01b038116811461011a575f5ffd5b6020939093015192949293505050565b61101b806101375f395ff3fe608060405234801561000f575f5ffd5b506004361061011c575f3560e01c806399f85e3a116100a9578063cf57ee691161006e578063cf57ee6914610272578063cfd476631461029a578063e1f1c4a7146102d7578063ee172546146102e0578063fca3b5aa146102e9575f5ffd5b806399f85e3a146101fb5780639bfd8d611461020e5780639e447fc61461022d578063a8c478ba14610240578063ab7573dd14610253575f5ffd5b8063718dc3c3116100ef578063718dc3c3146101b15780637b0472f0146101ba5780637b0a47ee146101cd578063899e5d85146101d65780638da5cb5b146101e8575f5ffd5b806307546172146101205780632e17de7814610150578063567e98f914610165578063584b62a11461017c575b5f5ffd5b600254610133906001600160a01b031681565b6040516001600160a01b0390911681526020015b60405180910390f35b61016361015e366004610e09565b6102fc565b005b61016e60075481565b604051908152602001610147565b61018f61018a366004610e3b565b610721565b6040805194855260208501939093529183015215156060820152608001610147565b61016e61138881565b6101636101c8366004610e63565b610766565b61016e60035481565b5f54610133906001600160a01b031681565b600154610133906001600160a01b031681565b61016e610209366004610e93565b610a5d565b61016e61021c366004610f09565b60056020525f908152604090205481565b61016361023b366004610e09565b610ae4565b61016e61024e366004610f09565b610b72565b61016e610261366004610f09565b60066020525f908152604090205481565b61016e610280366004610f09565b6001600160a01b03165f9081526004602052604090205490565b6102ad6102a8366004610e3b565b610c7f565b6040805195865260208601949094529284019190915215156060830152608082015260a001610147565b61016e61271081565b61016e60085481565b6101636102f7366004610f09565b610da0565b335f90815260046020526040902054811061034e5760405162461bcd60e51b815260206004820152600d60248201526c0d2dcecc2d8d2c840d2dcc8caf609b1b60448201526064015b60405180910390fd5b335f90815260046020526040812080548390811061036e5761036e610f29565b5f9182526020909120600490910201600381015490915060ff166103c75760405162461bcd60e51b815260206004820152601060248201526f185b1c9958591e481d5b9cdd185ad95960821b6044820152606401610345565b806002015481600101546103db9190610f51565b4210156104195760405162461bcd60e51b815260206004820152600c60248201526b1cdd1a5b1b081b1bd8dad95960a21b6044820152606401610345565b80546040805160808101825282815260018401546020820152600284015491810191909152600383015460ff16151560608201525f9061045890610a5d565b60038401805460ff19169055335f90815260056020526040812080549293508492909190610487908490610f6a565b925050819055508160075f82825461049f9190610f6a565b9091555050600254306001600160a01b039091160361051b575f546040516340c10f1960e01b8152336004820152602481018390526001600160a01b03909116906340c10f19906044015f604051808303815f87803b158015610500575f5ffd5b505af1158015610512573d5f5f3e3d5ffd5b505050506105f4565b6002546001600160a01b0316156105f1575f546002546040516323b872dd60e01b81526001600160a01b039182166004820152336024820152604481018490529116906323b872dd906064016020604051808303815f875af1158015610583573d5f5f3e3d5ffd5b505050506040513d601f19601f820116820180604052508101906105a79190610f7d565b6105ec5760405162461bcd60e51b81526020600482015260166024820152751c995dd85c99081d1c985b9cd9995c8819985a5b195960521b6044820152606401610345565b6105f4565b505f5b5f5460405163a9059cbb60e01b8152336004820152602481018490526001600160a01b039091169063a9059cbb906044016020604051808303815f875af1158015610641573d5f5f3e3d5ffd5b505050506040513d601f19601f820116820180604052508101906106659190610f7d565b6106a35760405162461bcd60e51b815260206004820152600f60248201526e1d1c985b9cd9995c8819985a5b1959608a1b6044820152606401610345565b335f90815260066020526040812080548392906106c1908490610f51565b925050819055508060085f8282546106d99190610f51565b90915550506040805183815260208101839052859133917f204fccf0d92ed8d48f204adb39b2e81e92bad0dedb93f5716ca9478cfb57de00910160405180910390a350505050565b6004602052815f5260405f20818154811061073a575f80fd5b5f9182526020909120600490910201805460018201546002830154600390930154919450925060ff1684565b5f82116107a25760405162461bcd60e51b815260206004820152600a6024820152690616d6f756e74203e20360b41b6044820152606401610345565b5f81116107e35760405162461bcd60e51b815260206004820152600f60248201526e06c6f636b20706572696f64203e203608c1b6044820152606401610345565b5f546040516370a0823160e01b815233600482015283916001600160a01b0316906370a0823190602401602060405180830381865afa158015610828573d5f5f3e3d5ffd5b505050506040513d601f19601f8201168201806040525081019061084c9190610f98565b10156108915760405162461bcd60e51b8152602060048201526014602482015273696e73756666696369656e742062616c616e636560601b6044820152606401610345565b5f546040516323b872dd60e01b8152336004820152306024820152604481018490526001600160a01b03909116906323b872dd906064016020604051808303815f875af11580156108e4573d5f5f3e3d5ffd5b505050506040513d601f19601f820116820180604052508101906109089190610f7d565b6109465760405162461bcd60e51b815260206004820152600f60248201526e1d1c985b9cd9995c8819985a5b1959608a1b6044820152606401610345565b5f6109548262015180610faf565b335f81815260046020818152604080842081516080810183528a81524281850190815281840189815260016060840181815285548083018755958a52878a2094519590980290930193845590519183019190915551600282015592516003909301805460ff1916931515939093179092559282526005909252908120805492935085929091906109e5908490610f51565b925050819055508260075f8282546109fd9190610f51565b9091555050335f90815260046020526040902054610a1d90600190610f6a565b604080518581526020810184905233917fb4caaf29adda3eefee3ad552a8e85058589bf834c7466cae4ee58787f70589ed910160405180910390a3505050565b5f81606001511580610a81575081604001518260200151610a7e9190610f51565b42105b15610a8d57505f919050565b5f826020015142610a9e9190610f6a565b90505f612710600354855f0151610ab59190610faf565b610abf9190610fc6565b90505f6301e13380610ad18484610faf565b610adb9190610fc6565b95945050505050565b6001546001600160a01b03163314610b2b5760405162461bcd60e51b815260206004820152600a60248201526937b7363c9037bbb732b960b11b6044820152606401610345565b611388811115610b6d5760405162461bcd60e51b815260206004820152600d60248201526c0e4c2e8ca40e8dede40d0d2ced609b1b6044820152606401610345565b600355565b5f80805b6001600160a01b0384165f90815260046020526040902054811015610c78576001600160a01b0384165f908152600460205260409020805482908110610bbe57610bbe610f29565b5f91825260209091206003600490920201015460ff1615610c70576001600160a01b0384165f908152600460205260408120805483908110610c0257610c02610f29565b5f91825260209182902060408051608081018252600490930290910180548352600181015493830184905260028101549183018290526003015460ff1615156060830152909250610c5291610f51565b4210610c6e57610c6181610a5d565b610c6b9084610f51565b92505b505b600101610b76565b5092915050565b6001600160a01b0382165f9081526004602052604081205481908190819081908610610cdd5760405162461bcd60e51b815260206004820152600d60248201526c0d2dcecc2d8d2c840d2dcc8caf609b1b6044820152606401610345565b6001600160a01b0387165f908152600460205260408120805488908110610d0657610d06610f29565b5f9182526020808320604080516080810182526004909402909101805484526001810154928401929092526002820154908301526003015460ff1615801560608301819052919350610d6b575081604001518260200151610d679190610f51565b4210155b15610d7c57610d7982610a5d565b90505b815160208301516040840151606090940151919b909a509298509650945092505050565b6001546001600160a01b03163314610de75760405162461bcd60e51b815260206004820152600a60248201526937b7363c9037bbb732b960b11b6044820152606401610345565b600280546001600160a01b0319166001600160a01b0392909216919091179055565b5f60208284031215610e19575f5ffd5b5035919050565b80356001600160a01b0381168114610e36575f5ffd5b919050565b5f5f60408385031215610e4c575f5ffd5b610e5583610e20565b946020939093013593505050565b5f5f60408385031215610e74575f5ffd5b50508035926020909101359150565b8015158114610e90575f5ffd5b50565b5f6080828403128015610ea4575f5ffd5b506040516080810167ffffffffffffffff81118282101715610ed457634e487b7160e01b5f52604160045260245ffd5b6040908152833582526020808501359083015283810135908201526060830135610efd81610e83565b60608201529392505050565b5f60208284031215610f19575f5ffd5b610f2282610e20565b9392505050565b634e487b7160e01b5f52603260045260245ffd5b634e487b7160e01b5f52601160045260245ffd5b80820180821115610f6457610f64610f3d565b92915050565b81810381811115610f6457610f64610f3d565b5f60208284031215610f8d575f5ffd5b8151610f2281610e83565b5f60208284031215610fa8575f5ffd5b5051919050565b8082028115828204841417610f6457610f64610f3d565b5f82610fe057634e487b7160e01b5f52601260045260245ffd5b50049056fea2646970667358221220802f66b595ae769e60fec79b41f3bce32d80ad06d05af153d07847adf3f8382a64736f6c634300081c0033",
  "linkReferences": {},
  "deployedLinkReferences": {},
  "immutableReferences": {},
  "inputSourceName": "project/contracts/CreditStaking.sol",
  "buildInfoId": "solc-0_8_28-6872bf664b25f25625f34484bb4f72af87932a36"
}