{
  "_format": "hh3-artifact-1",
  "contractName": "Governance",
  "sourceName": "contracts/Governance.sol",
  "abi": [
    {
      "inputs": [
        {
          "internalType": "address",
          "name": "tokenAddress",
          "type": "address"
        },
        {
          "internalType": "address",
          "name": "accessControlAddress",
          "type": "address"
        }
      ],
      "stateMutability": "nonpayable",
      "type": "constructor"
    },
    {
      "anonymous": false,
      "inputs": [
        {
          "indexed": true,
          "internalType": "uint256",
          "name": "proposalId",
          "type": "uint256"
        },
        {
          "indexed": false,
          "internalType": "address",
          "name": "proposer",
          "type": "address"
        },
        {
          "indexed": false,
          "internalType": "string",
          "name": "description",
          "type": "string"
        }
      ],
      "name": "ProposalCreated",
      "type": "event"
    },
    {
      "anonymous": false,
      "inputs": [
        {
          "indexed": true,
          "internalType": "uint256",
          "name": "proposalId",
          "type": "uint256"
        }
      ],
      "name": "ProposalExecuted",
      "type": "event"
    },
    {
      "anonymous": false,
      "inputs": [
        {
          "indexed": true,
          "internalType": "uint256",
          "name": "proposalId",
          "type": "uint256"
        },
        {
          "indexed": false,
          "internalType": "address",
          "name": "voter",
          "type": "address"
        },
        {
          "indexed": false,
          "internalType": "bool",
          "name": "support",
          "type": "bool"
        },
        {
          "indexed": false,
          "internalType": "uint256",
          "name": "votes",
          "type": "uint256"
        }
      ],
      "name": "VoteCast",
      "type": "event"
    },
    {
      "inputs": [],
      "name": "accessControl",
      "outputs": [
        {
          "internalType": "contract AccessControl",
          "name": "",
          "type": "address"
        }
      ],
      "stateMutability": "view",
      "type": "function"
    },
    {
      "inputs": [
        {
          "internalType": "string",
          "name": "description",
          "type": "string"
        },
        {
          "internalType": "address",
          "name": "target",
          "type": "address"
        },
        {
          "internalType": "bytes",
          "name": "data",
          "type": "bytes"
        }
      ],
      "name": "createProposal",
      "outputs": [
        {
          "internalType": "uint256",
          "name": "",
          "type": "uint256"
        }
      ],
      "stateMutability": "nonpayable",
      "type": "function"
    },
    {
      "inputs": [],
      "name": "creditToken",
      "outputs": [
        {
          "internalType": "contract CarbonCreditToken",
          "name": "",
          "type": "address"
        }
      ],
      "stateMutability": "view",
      "type": "function"
    },
    {
      "inputs": [
        {
          "internalType": "uint256",
          "name": "proposalId",
          "type": "uint256"
        }
      ],
      "name": "executeProposal",
      "outputs": [],
      "stateMutability": "nonpayable",
      "type": "function"
    },
    {
      "inputs": [
        {
          "internalType": "uint256",
          "name": "proposalId",
          "type": "uint256"
        }
      ],
      "name": "getProposal",
      "outputs": [
        {
          "internalType": "address",
          "name": "proposer",
          "type": "address"
        },
        {
          "internalType": "string",
          "name": "description",
          "type": "string"
        },
        {
          "internalType": "uint256",
          "name": "votesFor",
          "type": "uint256"
        },
        {
          "internalType": "uint256",
          "name": "votesAgainst",
          "type": "uint256"
        },
        {
          "internalType": "uint256",
          "name": "deadline",
          "type": "uint256"
        },
        {
          "internalType": "bool",
          "name": "executed",
          "type": "bool"
        }
      ],
      "stateMutability": "view",
      "type": "function"
    },
    {
      "inputs": [
        {
          "internalType": "uint256",
          "name": "",
          "type": "uint256"
        },
        {
          "internalType": "address",
          "name": "",
          "type": "address"
        }
      ],
      "name": "hasVoted",
      "outputs": [
        {
          "internalType": "bool",
          "name": "",
          "type": "bool"
        }
      ],
      "stateMutability": "view",
      "type": "function"
    },
    {
      "inputs": [],
      "name": "proposalCount",
      "outputs": [
        {
          "internalType": "uint256",
          "name": "",
          "type": "uint256"
        }
      ],
      "stateMutability": "view",
      "type": "function"
    },
    {
      "inputs": [],
      "name": "proposalThreshold",
      "outputs": [
        {
          "internalType": "uint256",
          "name": "",
          "type": "uint256"
        }
      ],
      "stateMutability": "view",
      "type": "function"
    },
    {
      "inputs": [
        {
          "internalType": "uint256",
          "name": "",
          "type": "uint256"
        }
      ],
      "name": "proposals",
      "outputs": [
        {
          "internalType": "address",
          "name": "proposer",
          "type": "address"
        },
        {
          "internalType": "string",
          "name": "description",
          "type": "string"
        },
        {
          "internalType": "uint256",
          "name": "votesFor",
          "type": "uint256"
        },
        {
          "internalType": "uint256",
          "name": "votesAgainst",
          "type": "uint256"
        },
        {
          "internalType": "uint256",
          "name": "deadline",
          "type": "uint256"
        },
        {
          "internalType": "bool",
          "name": "executed",
          "type": "bool"
        },
        {
          "internalType": "bytes",
          "name": "data",
          "type": "bytes"
        },
        {
          "internalType": "address",
          "name": "target",
          "type": "address"
        }
      ],
      "stateMutability": "view",
      "type": "function"
    },
    {
      "inputs": [],
      "name": "quorumThreshold",
      "outputs": [
        {
          "internalType": "uint256",
          "name": "",
          "type": "uint256"
        }
      ],
      "stateMutability": "view",
      "type": "function"
    },
    {
      "inputs": [
        {
          "internalType": "uint256",
          "name": "newThreshold",
          "type": "uint256"
        }
      ],
      "name": "setQuorumThreshold",
      "outputs": [],
      "stateMutability": "nonpayable",
      "type": "function"
    },
    {
      "inputs": [
        {
          "internalType": "uint256",
          "name": "newPeriod",
          "type": "uint256"
        }
      ],
      "name": "setVotingPeriod",
      "outputs": [],
      "stateMutability": "nonpayable",
      "type": "function"
    },
    {
      "inputs": [
        {
          "internalType": "uint256",
          "name": "proposalId",
          "type": "uint256"
        },
        {
          "internalType": "bool",
          "name": "support",
          "type": "bool"
        }
      ],
      "name": "vote",
      "outputs": [],
      "stateMutability": "nonpayable",
      "type": "function"
    },
    {
      "inputs": [],
      "name": "votingPeriod",
      "outputs": [
        {
          "internalType": "uint256",
          "name": "",
          "type": "uint256"
        }
      ],
      "stateMutability": "view",
      "type": "function"
    },
    {
      "inputs": [
        {
          "internalType": "uint256",
          "name": "",
          "type": "uint256"
        },
        {
          "internalType": "address",
          "name": "",
          "type": "address"
        }
      ],
      "name": "votingPower",
      "outputs": [
        {
          "internalType": "uint256",
          "name": "",
          "type": "uint256"
        }
      ],
      "stateMutability": "view",
      "type": "function"
    }
  ],
  "bytecode": "0x608060405262093a80600655683635c9adc5dea0000060075569021e19e0c9bab2400000600855348015610031575f5ffd5b5060405161151f38038061151f8339810160408190526100509161013e565b6001600160a01b03821661009d5760405162461bcd60e51b815260206004820152600f60248201526e0746f6b656e2061646472657373203608c1b60448201526064015b60405180910390fd5b6001600160a01b0381166100f35760405162461bcd60e51b815260206004820152601860248201527f61636365737320636f6e74726f6c2061646472657373203000000000000000006044820152606401610094565b5f80546001600160a01b039384166001600160a01b0319918216179091556001805492909316911617905561016f565b80516001600160a01b0381168114610139575f5ffd5b919050565b5f5f6040838503121561014f575f5ffd5b61015883610123565b915061016660208401610123565b90509250929050565b6113a38061017c5f395ff3fe608060405234801561000f575f5ffd5b50600436106100f0575f3560e01c80637b7a91dd11610093578063c9d27afe11610063578063c9d27afe14610227578063d90125a51461023a578063da35c66414610264578063ea0217cf1461026d575f5ffd5b80637b7a91dd146101de578063899e5d85146101e7578063b58131b0146101f9578063c7f758a814610202575f5ffd5b806313007d55116100ce57806313007d55146101505780632821ff261461017b578063438596321461018e5780634524c7e1146101cb575f5ffd5b8063013cf08b146100f457806302a251a3146101245780630d61b5191461013b575b5f5ffd5b610107610102366004610e41565b610280565b60405161011b989796959493929190610e86565b60405180910390f35b61012d60065481565b60405190815260200161011b565b61014e610149366004610e41565b6103e7565b005b600154610163906001600160a01b031681565b6040516001600160a01b03909116815260200161011b565b61012d610189366004610f54565b6105dc565b6101bb61019c366004610fd5565b600460209081525f928352604080842090915290825290205460ff1681565b604051901515815260200161011b565b61014e6101d9366004610e41565b6108ec565b61012d60075481565b5f54610163906001600160a01b031681565b61012d60085481565b610215610210366004610e41565b61099a565b60405161011b96959493929190610fff565b61014e610235366004611059565b610aaa565b61012d610248366004610fd5565b600560209081525f928352604080842090915290825290205481565b61012d60025481565b61014e61027b366004610e41565b610d40565b60036020525f9081526040902080546001820180546001600160a01b0390921692916102ab90611087565b80601f01602080910402602001604051908101604052809291908181526020018280546102d790611087565b80156103225780601f106102f957610100808354040283529160200191610322565b820191905f5260205f20905b81548152906001019060200180831161030557829003601f168201915b50505060028401546003850154600486015460058701546006880180549798949793965091945060ff16929161035790611087565b80601f016020809104026020016040519081016040528092919081815260200182805461038390611087565b80156103ce5780601f106103a5576101008083540402835291602001916103ce565b820191905f5260205f20905b8154815290600101906020018083116103b157829003601f168201915b505050600790930154919250506001600160a01b031688565b5f81815260036020526040902080546001600160a01b03166104245760405162461bcd60e51b815260040161041b906110bf565b60405180910390fd5b80600401544210156104695760405162461bcd60e51b815260206004820152600e60248201526d766f74696e67206f6e676f696e6760901b604482015260640161041b565b600581015460ff16156104b15760405162461bcd60e51b815260206004820152601060248201526f185b1c9958591e48195e1958dd5d195960821b604482015260640161041b565b80600301548160020154116104fa5760405162461bcd60e51b815260206004820152600f60248201526e1c1c9bdc1bdcd85b0819985a5b1959608a1b604482015260640161041b565b60058101805460ff1916600117905560078101546040515f916001600160a01b03169061052b9060068501906110eb565b5f604051808303815f865af19150503d805f8114610564576040519150601f19603f3d011682016040523d82523d5f602084013e610569565b606091505b50509050806105ad5760405162461bcd60e51b815260206004820152601060248201526f195e1958dd5d1a5bdb8819985a5b195960821b604482015260640161041b565b60405183907f712ae1383f79ac853f8d882153778e0260ef8f03b504e2866e0593e04d2b291f905f90a2505050565b6008545f80546040516370a0823160e01b81523360048201529192916001600160a01b03909116906370a0823190602401602060405180830381865afa158015610628573d5f5f3e3d5ffd5b505050506040513d601f19601f8201168201806040525081019061064c919061115c565b10156106905760405162461bcd60e51b8152602060048201526013602482015272696e73756666696369656e7420746f6b656e7360681b604482015260640161041b565b846106d45760405162461bcd60e51b815260206004820152601460248201527319195cd8dc9a5c1d1a5bdb881c995c5d5a5c995960621b604482015260640161041b565b6001600160a01b03841661071d5760405162461bcd60e51b815260206004820152601060248201526f0746172676574206164647265737320360841b604482015260640161041b565b5f60025f815461072c90611187565b9190508190559050604051806101000160405280336001600160a01b0316815260200188888080601f0160208091040260200160405190810160405280939291908181526020018383808284375f9201829052509385525050506020820181905260408201526006546060909101906107a5904261119f565b81526020015f1515815260200185858080601f0160208091040260200160405190810160405280939291908181526020018383808284375f9201829052509385525050506001600160a01b03888116602093840152848252600383526040909120835181546001600160a01b031916921691909117815590820151600182019061082f9082611218565b5060408201516002820155606082015160038201556080820151600482015560a082015160058201805460ff191691151591909117905560c0820151600682019061087a9082611218565b5060e09190910151600790910180546001600160a01b0319166001600160a01b0390921691909117905560405181907f7585f467599d0f008985f231af99293be388626ac16ca59505c2f8f88969cd63906108da9033908b908b906112d3565b60405180910390a29695505050505050565b600180546040516395a8c58d60e01b81526001600160a01b03909116916395a8c58d9161091d913391600401611312565b602060405180830381865afa158015610938573d5f5f3e3d5ffd5b505050506040513d601f19601f8201168201806040525081019061095c919061134b565b6109955760405162461bcd60e51b815260206004820152600a60248201526937b7363c9030b236b4b760b11b604482015260640161041b565b600755565b5f81815260036020526040812080546060918391829182918291906001600160a01b03166109da5760405162461bcd60e51b815260040161041b906110bf565b805460028201546003830154600484015460058501546001860180546001600160a01b0390961695909493929160ff16908590610a1690611087565b80601f0160208091040260200160405190810160405280929190818152602001828054610a4290611087565b8015610a8d5780601f10610a6457610100808354040283529160200191610a8d565b820191905f5260205f20905b815481529060010190602001808311610a7057829003601f168201915b505050505094509650965096509650965096505091939550919395565b5f82815260036020526040902080546001600160a01b0316610ade5760405162461bcd60e51b815260040161041b906110bf565b80600401544210610b205760405162461bcd60e51b815260206004820152600c60248201526b1d9bdd1a5b99c8195b99195960a21b604482015260640161041b565b600581015460ff1615610b685760405162461bcd60e51b815260206004820152601060248201526f185b1c9958591e48195e1958dd5d195960821b604482015260640161041b565b5f83815260046020908152604080832033845290915290205460ff1615610bc15760405162461bcd60e51b815260206004820152600d60248201526c185b1c9958591e481d9bdd1959609a1b604482015260640161041b565b5f80546040516370a0823160e01b81523360048201526001600160a01b03909116906370a0823190602401602060405180830381865afa158015610c07573d5f5f3e3d5ffd5b505050506040513d601f19601f82011682018060405250810190610c2b919061115c565b9050600754811015610c7f5760405162461bcd60e51b815260206004820152601960248201527f696e73756666696369656e7420766f74696e6720706f77657200000000000000604482015260640161041b565b5f84815260046020908152604080832033808552908352818420805460ff191660011790558784526005835281842090845290915290208190558215610cdd5780826002015f828254610cd2919061119f565b90915550610cf69050565b80826003015f828254610cf0919061119f565b90915550505b60408051338152841515602082015290810182905284907fcbdf6214089cba887ecbf35a0b6a734589959c9763342c756bb2a80ca2bc9f6e9060600160405180910390a250505050565b600180546040516395a8c58d60e01b81526001600160a01b03909116916395a8c58d91610d71913391600401611312565b602060405180830381865afa158015610d8c573d5f5f3e3d5ffd5b505050506040513d601f19601f82011682018060405250810190610db0919061134b565b610de95760405162461bcd60e51b815260206004820152600a60248201526937b7363c9030b236b4b760b11b604482015260640161041b565b620151808110158015610dff575062278d008111155b610e3c5760405162461bcd60e51b815260206004820152600e60248201526d1a5b9d985b1a59081c195c9a5bd960921b604482015260640161041b565b600655565b5f60208284031215610e51575f5ffd5b5035919050565b5f81518084528060208401602086015e5f602082860101526020601f19601f83011685010191505092915050565b6001600160a01b0389168152610100602082018190525f90610eaa9083018a610e58565b88604084015287606084015286608084015285151560a084015282810360c0840152610ed68186610e58565b91505060018060a01b03831660e08301529998505050505050505050565b5f5f83601f840112610f04575f5ffd5b50813567ffffffffffffffff811115610f1b575f5ffd5b602083019150836020828501011115610f32575f5ffd5b9250929050565b80356001600160a01b0381168114610f4f575f5ffd5b919050565b5f5f5f5f5f60608688031215610f68575f5ffd5b853567ffffffffffffffff811115610f7e575f5ffd5b610f8a88828901610ef4565b9096509450610f9d905060208701610f39565b9250604086013567ffffffffffffffff811115610fb8575f5ffd5b610fc488828901610ef4565b969995985093965092949392505050565b5f5f60408385031215610fe6575f5ffd5b82359150610ff660208401610f39565b90509250929050565b6001600160a01b038716815260c0602082018190525f9061102290830188610e58565b905085604083015284606083015283608083015282151560a0830152979650505050505050565b8015158114611056575f5ffd5b50565b5f5f6040838503121561106a575f5ffd5b82359150602083013561107c81611049565b809150509250929050565b600181811c9082168061109b57607f821691505b6020821081036110b957634e487b7160e01b5f52602260045260245ffd5b50919050565b6020808252601290820152711c1c9bdc1bdcd85b081b9bdd08199bdd5b9960721b604082015260600190565b5f5f83546110f881611087565b60018216801561110f576001811461112457611151565b60ff1983168652811515820286019350611151565b865f5260205f205f5b838110156111495781548882015260019091019060200161112d565b505081860193505b509195945050505050565b5f6020828403121561116c575f5ffd5b5051919050565b634e487b7160e01b5f52601160045260245ffd5b5f6001820161119857611198611173565b5060010190565b808201808211156111b2576111b2611173565b92915050565b634e487b7160e01b5f52604160045260245ffd5b601f82111561121357805f5260205f20601f840160051c810160208510156111f15750805b601f840160051c820191505b81811015611210575f81556001016111fd565b50505b505050565b815167ffffffffffffffff811115611232576112326111b8565b611246816112408454611087565b846111cc565b6020601f821160018114611278575f83156112615750848201515b5f19600385901b1c1916600184901b178455611210565b5f84815260208120601f198516915b828110156112a75787850151825560209485019460019092019101611287565b50848210156112c457868401515f19600387901b60f8161c191681555b50505050600190811b01905550565b6001600160a01b03841681526040602082018190528101829052818360608301375f818301606090810191909152601f909201601f1916010192915050565b6001600160a01b0383168152604081016004831061133e57634e487b7160e01b5f52602160045260245ffd5b8260208301529392505050565b5f6020828403121561135b575f5ffd5b815161136681611049565b939250505056fea264697066735822122008614f2b4c2951edf70ebd30fbe5df5061945c795f212db1f2675539065bddf764736f6c634300081c0033",
  "linkReferences": {},
  "deployedLinkReferences": {},
  "immutableReferences": {},
  "inputSourceName": "project/contracts/Governance.sol",
  "buildInfoId": "solc-0_8_28-854baf8dd2a2ba55f118b0022b22dd815728ff9c"
}