{
  "_format": "hh3-artifact-1",
  "contractName": "EcoLedgerV2",
  "sourceName": "contracts/EcoLedgerV2.sol",
  "abi": [
    {
      "inputs": [
        {
          "internalType": "address",
          "name": "tokenAddress",
          "type": "address"
        },
        {
          "internalType": "address",
          "name": "badgeAddress",
          "type": "address"
        },
        {
          "internalType": "address",
          "name": "accessControlAddress",
          "type": "address"
        },
        {
          "internalType": "uint256",
          "name": "threshold",
          "type": "uint256"
        }
      ],
      "stateMutability": "nonpayable",
      "type": "constructor"
    },
    {
      "anonymous": false,
      "inputs": [
        {
          "indexed": true,
          "internalType": "uint256",
          "name": "actionId",
          "type": "uint256"
        },
        {
          "indexed": false,
          "internalType": "uint256",
          "name": "actualCredits",
          "type": "uint256"
        }
      ],
      "name": "ActionFullyVerified",
      "type": "event"
    },
    {
      "anonymous": false,
      "inputs": [
        {
          "indexed": true,
          "internalType": "uint256",
          "name": "actionId",
          "type": "uint256"
        },
        {
          "indexed": true,
          "internalType": "address",
          "name": "verifier",
          "type": "address"
        },
        {
          "indexed": false,
          "internalType": "bool",
          "name": "approved",
          "type": "bool"
        },
        {
          "indexed": false,
          "internalType": "uint256",
          "name": "credits",
          "type": "uint256"
        }
      ],
      "name": "ActionVerified",
      "type": "event"
    },
    {
      "anonymous": false,
      "inputs": [
        {
          "indexed": true,
          "internalType": "address",
          "name": "company",
          "type": "address"
        }
      ],
      "name": "CompanyVerified",
      "type": "event"
    },
    {
      "anonymous": false,
      "inputs": [
        {
          "indexed": true,
          "internalType": "uint256",
          "name": "actionId",
          "type": "uint256"
        },
        {
          "indexed": true,
          "internalType": "address",
          "name": "company",
          "type": "address"
        },
        {
          "indexed": false,
          "internalType": "string",
          "name": "title",
          "type": "string"
        },
        {
          "indexed": false,
          "internalType": "string",
          "name": "category",
          "type": "string"
        }
      ],
      "name": "EcoActionLogged",
      "type": "event"
    },
    {
      "anonymous": false,
      "inputs": [
        {
          "indexed": true,
          "internalType": "address",
          "name": "company",
          "type": "address"
        },
        {
          "indexed": false,
          "internalType": "uint256",
          "name": "newScore",
          "type": "uint256"
        }
      ],
      "name": "ReputationUpdated",
      "type": "event"
    },
    {
      "inputs": [],
      "name": "accessControl",
      "outputs": [
        {
          "internalType": "contract AccessControl",
          "name": "",
          "type": "address"
        }
      ],
      "stateMutability": "view",
      "type": "function"
    },
    {
      "inputs": [],
      "name": "actionCount",
      "outputs": [
        {
          "internalType": "uint256",
          "name": "",
          "type": "uint256"
        }
      ],
      "stateMutability": "view",
      "type": "function"
    },
    {
      "inputs": [],
      "name": "badgeNFT",
      "outputs": [
        {
          "internalType": "contract EcoBadgeNFT",
          "name": "",
          "type": "address"
        }
      ],
      "stateMutability": "view",
      "type": "function"
    },
    {
      "inputs": [
        {
          "internalType": "address",
          "name": "",
          "type": "address"
        }
      ],
      "name": "companies",
      "outputs": [
        {
          "internalType": "uint256",
          "name": "totalCreditsEarned",
          "type": "uint256"
        },
        {
          "internalType": "uint256",
          "name": "totalActions",
          "type": "uint256"
        },
        {
          "internalType": "uint256",
          "name": "verifiedActions",
          "type": "uint256"
        },
        {
          "internalType": "uint256",
          "name": "reputationScore",
          "type": "uint256"
        },
        {
          "internalType": "bool",
          "name": "isVerified",
          "type": "bool"
        }
      ],
      "stateMutability": "view",
      "type": "function"
    },
    {
      "inputs": [
        {
          "internalType": "address",
          "name": "",
          "type": "address"
        },
        {
          "internalType": "uint256",
          "name": "",
          "type": "uint256"
        }
      ],
      "name": "companyActions",
      "outputs": [
        {
          "internalType": "uint256",
          "name": "",
          "type": "uint256"
        }
      ],
      "stateMutability": "view",
      "type": "function"
    },
    {
      "inputs": [],
      "name": "creditToken",
      "outputs": [
        {
          "internalType": "contract CarbonCreditToken",
          "name": "",
          "type": "address"
        }
      ],
      "stateMutability": "view",
      "type": "function"
    },
    {
      "inputs": [
        {
          "internalType": "uint256",
          "name": "actionId",
          "type": "uint256"
        }
      ],
      "name": "getAction",
      "outputs": [
        {
          "internalType": "address",
          "name": "company",
          "type": "address"
        },
        {
          "internalType": "string",
          "name": "title",
          "type": "string"
        },
        {
          "internalType": "string",
          "name": "description",
          "type": "string"
        },
        {
          "internalType": "uint256",
          "name": "estimatedCredits",
          "type": "uint256"
        },
        {
          "internalType": "string",
          "name": "location",
          "type": "string"
        },
        {
          "internalType": "bool",
          "name": "verified",
          "type": "bool"
        },
        {
          "internalType": "uint256",
          "name": "actualCredits",
          "type": "uint256"
        },
        {
          "internalType": "uint256",
          "name": "verificationCount",
          "type": "uint256"
        },
        {
          "internalType": "uint256",
          "name": "timestamp",
          "type": "uint256"
        },
        {
          "internalType": "string",
          "name": "category",
          "type": "string"
        }
      ],
      "stateMutability": "view",
      "type": "function"
    },
    {
      "inputs": [
        {
          "internalType": "address",
          "name": "company",
          "type": "address"
        }
      ],
      "name": "getCompanyActions",
      "outputs": [
        {
          "internalType": "uint256[]",
          "name": "",
          "type": "uint256[]"
        }
      ],
      "stateMutability": "view",
      "type": "function"
    },
    {
      "inputs": [
        {
          "internalType": "address",
          "name": "company",
          "type": "address"
        }
      ],
      "name": "getCompanyProfile",
      "outputs": [
        {
          "internalType": "uint256",
          "name": "totalCreditsEarned",
          "type": "uint256"
        },
        {
          "internalType": "uint256",
          "name": "totalActions",
          "type": "uint256"
        },
        {
          "internalType": "uint256",
          "name": "verifiedActions",
          "type": "uint256"
        },
        {
          "internalType": "uint256",
          "name": "reputationScore",
          "type": "uint256"
        },
        {
          "internalType": "bool",
          "name": "isVerified",
          "type": "bool"
        }
      ],
      "stateMutability": "view",
      "type": "function"
    },
    {
      "inputs": [
        {
          "internalType": "uint256",
          "name": "actionId",
          "type": "uint256"
        },
        {
          "internalType": "address",
          "name": "verifier",
          "type": "address"
        }
      ],
      "name": "hasVerified",
      "outputs": [
        {
          "internalType": "bool",
          "name": "",
          "type": "bool"
        }
      ],
      "stateMutability": "view",
      "type": "function"
    },
    {
      "inputs": [],
      "name": "leaderboard",
      "outputs": [
        {
          "internalType": "contract Leaderboard",
          "name": "",
          "type": "address"
        }
      ],
      "stateMutability": "view",
      "type": "function"
    },
    {
      "inputs": [
        {
          "internalType": "string",
          "name": "title",
          "type": "string"
        },
        {
          "internalType": "string",
          "name": "description",
          "type": "string"
        },
        {
          "internalType": "uint256",
          "name": "estimatedCredits",
          "type": "uint256"
        },
        {
          "internalType": "string",
          "name": "location",
          "type": "string"
        },
        {
          "internalType": "string",
          "name": "category",
          "type": "string"
        }
      ],
      "name": "logEcoAction",
      "outputs": [
        {
          "internalType": "uint256",
          "name": "",
          "type": "uint256"
        }
      ],
      "stateMutability": "nonpayable",
      "type": "function"
    },
    {
      "inputs": [],
      "name": "reputationMultiplier",
      "outputs": [
        {
          "internalType": "uint256",
          "name": "",
          "type": "uint256"
        }
      ],
      "stateMutability": "view",
      "type": "function"
    },
    {
      "inputs": [
        {
          "internalType": "address",
          "name": "leaderboardAddress",
          "type": "address"
        }
      ],
      "name": "setLeaderboard",
      "outputs": [],
      "stateMutability": "nonpayable",
      "type": "function"
    },
    {
      "inputs": [
        {
          "internalType": "uint256",
          "name": "newMultiplier",
          "type": "uint256"
        }
      ],
      "name": "setReputationMultiplier",
      "outputs": [],
      "stateMutability": "nonpayable",
      "type": "function"
    },
    {
      "inputs": [
        {
          "internalType": "uint256",
          "name": "newThreshold",
          "type": "uint256"
        }
      ],
      "name": "setVerificationThreshold",
      "outputs": [],
      "stateMutability": "nonpayable",
      "type": "function"
    },
    {
      "inputs": [],
      "name": "verificationThreshold",
      "outputs": [
        {
          "internalType": "uint256",
          "name": "",
          "type": "uint256"
        }
      ],
      "stateMutability": "view",
      "type": "function"
    },
    {
      "inputs": [
        {
          "internalType": "uint256",
          "name": "actionId",
          "type": "uint256"
        },
        {
          "internalType": "bool",
          "name": "approved",
          "type": "bool"
        },
        {
          "internalType": "uint256",
          "name": "actualCredits",
          "type": "uint256"
        }
      ],
      "name": "verifyAction",
      "outputs": [],
      "stateMutability": "nonpayable",
      "type": "function"
    },
    {
      "inputs": [
        {
          "internalType": "address",
          "name": "company",
          "type": "address"
        }
      ],
      "name": "verifyCompany",
      "outputs": [],
      "stateMutability": "nonpayable",
      "type": "function"
    }
  ],
  "bytecode": "0x608060405234801561000f575f5ffd5b50604051611cac380380611cac83398101604081905261002e91610191565b6001600160a01b03841661007b5760405162461bcd60e51b815260206004820152600f60248201526e0746f6b656e2061646472657373203608c1b60448201526064015b60405180910390fd5b6001600160a01b0383166100c35760405162461bcd60e51b815260206004820152600f60248201526e062616467652061646472657373203608c1b6044820152606401610072565b6001600160a01b0382166101195760405162461bcd60e51b815260206004820152601860248201527f61636365737320636f6e74726f6c2061646472657373203000000000000000006044820152606401610072565b600180546001600160a01b038087166001600160a01b031992831617909255600280548684169083161790555f80549285169290911691909117905580610161576001610163565b805b6008555050612710600955506101d99050565b80516001600160a01b038116811461018c575f5ffd5b919050565b5f5f5f5f608085870312156101a4575f5ffd5b6101ad85610176565b93506101bb60208601610176565b92506101c960408601610176565b6060959095015193969295505050565b611ac6806101e65f395ff3fe608060405234801561000f575f5ffd5b506004361061011b575f3560e01c80635725fc0a116100a9578063eb56b7401161006e578063eb56b740146102b3578063f1a2de72146102c6578063f592146d146102d9578063fb1aac35146102ec578063ff99653e14610337575f5ffd5b80635725fc0a14610248578063899e5d851461025b578063980da2441461026e578063b6e7687314610281578063bb55963e146102aa575f5ffd5b806329da5738116100ef57806329da57381461018d578063355e6ce81461019657806338cc32c4146101ff5780634348e0e91461021257806356563e4a14610225575f5ffd5b8062d1c93b1461011f5780630a1baa601461013457806313007d551461015a578063167feb0914610184575b5f5ffd5b61013261012d3660046114d7565b610357565b005b610147610142366004611527565b610618565b6040519081526020015b60405180910390f35b5f5461016c906001600160a01b031681565b6040516001600160a01b039091168152602001610151565b61014760085481565b61014760045481565b6101d56101a436600461154f565b60066020525f9081526040902080546001820154600283015460038401546004909401549293919290919060ff1685565b6040805195865260208601949094529284019190915260608301521515608082015260a001610151565b61013261020d36600461156f565b610643565b60025461016c906001600160a01b031681565b610238610233366004611586565b610715565b6040519015158152602001610151565b61013261025636600461156f565b610744565b60015461016c906001600160a01b031681565b61014761027c3660046115f5565b61081f565b61029461028f36600461156f565b610a3b565b6040516101519a999897969594939291906116fc565b61014760095481565b60035461016c906001600160a01b031681565b6101326102d436600461154f565b610d3b565b6101326102e736600461154f565b610e30565b6101d56102fa36600461154f565b6001600160a01b03165f9081526006602052604090208054600182015460028301546003840154600490940154929491939092909160ff90911690565b61034a61034536600461154f565b610f51565b604051610151919061178d565b5f546040516395a8c58d60e01b81526002916001600160a01b0316906395a8c58d9061038990339085906004016117cf565b602060405180830381865afa1580156103a4573d5f5f3e3d5ffd5b505050506040513d601f19601f820116820180604052508101906103c89190611808565b6103ed5760405162461bcd60e51b81526004016103e490611823565b60405180910390fd5b5f84815260056020526040902080546001600160a01b03166104445760405162461bcd60e51b815260206004820152601060248201526f1858dd1a5bdb881b9bdd08199bdd5b9960821b60448201526064016103e4565b335f90815260088201602052604090205460ff16156104985760405162461bcd60e51b815260206004820152601060248201526f185b1c9958591e481d995c9a599a595960821b60448201526064016103e4565b600581015460ff1615806104aa575083155b6104ee5760405162461bcd60e51b81526020600482015260156024820152741858dd1a5bdb88199d5b1b1e481d995c9a599a5959605a1b60448201526064016103e4565b335f9081526008820160205260409020805460ff1916600117905583156105d4575f831161054c5760405162461bcd60e51b815260206004820152600b60248201526a063726564697473203e20360ac1b60448201526064016103e4565b600781018054905f61055d8361185d565b919050555060085481600701541015801561057d5750600581015460ff16155b156105915761058c8584610fba565b610611565b604080516001815260208101859052339187917f83fcb63e4c385e0b1c199ef9fb3d83bc7031eccd267fa2a43f7e567a37ca2c38910160405180910390a3610611565b604080515f8082526020820152339187917f83fcb63e4c385e0b1c199ef9fb3d83bc7031eccd267fa2a43f7e567a37ca2c38910160405180910390a35b5050505050565b6007602052815f5260405f208181548110610631575f80fd5b905f5260205f20015f91509150505481565b5f546040516395a8c58d60e01b81526001916001600160a01b0316906395a8c58d9061067590339085906004016117cf565b602060405180830381865afa158015610690573d5f5f3e3d5ffd5b505050506040513d601f19601f820116820180604052508101906106b49190611808565b6106d05760405162461bcd60e51b81526004016103e490611823565b5f821161070f5760405162461bcd60e51b815260206004820152600d60248201526c07468726573686f6c64203e203609c1b60448201526064016103e4565b50600855565b5f8281526005602090815260408083206001600160a01b038516845260080190915290205460ff165b92915050565b5f546040516395a8c58d60e01b81526001916001600160a01b0316906395a8c58d9061077690339085906004016117cf565b602060405180830381865afa158015610791573d5f5f3e3d5ffd5b505050506040513d601f19601f820116820180604052508101906107b59190611808565b6107d15760405162461bcd60e51b81526004016103e490611823565b614e208211156108195760405162461bcd60e51b81526020600482015260136024820152720daead8e8d2e0d8d2cae440e8dede40d0d2ced606b1b60448201526064016103e4565b50600955565b5f8861085e5760405162461bcd60e51b815260206004820152600e60248201526d1d1a5d1b19481c995c5d5a5c995960921b60448201526064016103e4565b5f861161089c5760405162461bcd60e51b815260206004820152600c60248201526b0657374696d617465203e20360a41b60448201526064016103e4565b816108dd5760405162461bcd60e51b815260206004820152601160248201527018d85d1959dbdc9e481c995c5d5a5c9959607a1b60448201526064016103e4565b5f60045f81546108ec9061185d565b91829055505f81815260056020526040902080546001600160a01b03191633178155909150600181016109208c8e8361190a565b50600281016109308a8c8361190a565b50600381018890556004810161094787898361190a565b5060058101805460ff191690555f600682018190556007820155426009820155600a810161097685878361190a565b50335f90815260066020526040812060018101805491926109968361185d565b919050555060075f336001600160a01b03166001600160a01b031681526020019081526020015f2083908060018154018082558091505060019003905f5260205f20015f9091909190915055336001600160a01b0316837f02365727119ea5649f6d6a67a649effb8f140cfab1d1252b6ae7d62d84e10e348f8f8a8a604051610a2294939291906119ec565b60405180910390a350909b9a5050505050505050505050565b5f818152600560205260408120805460609182918491839183918291829182918691906001600160a01b0316610aa65760405162461bcd60e51b815260206004820152601060248201526f1858dd1a5bdb881b9bdd08199bdd5b9960821b60448201526064016103e4565b805f015f9054906101000a90046001600160a01b03168160010182600201836003015484600401856005015f9054906101000a900460ff1686600601548760070154886009015489600a01888054610afd90611889565b80601f0160208091040260200160405190810160405280929190818152602001828054610b2990611889565b8015610b745780601f10610b4b57610100808354040283529160200191610b74565b820191905f5260205f20905b815481529060010190602001808311610b5757829003601f168201915b50505050509850878054610b8790611889565b80601f0160208091040260200160405190810160405280929190818152602001828054610bb390611889565b8015610bfe5780601f10610bd557610100808354040283529160200191610bfe565b820191905f5260205f20905b815481529060010190602001808311610be157829003601f168201915b50505050509750858054610c1190611889565b80601f0160208091040260200160405190810160405280929190818152602001828054610c3d90611889565b8015610c885780601f10610c5f57610100808354040283529160200191610c88565b820191905f5260205f20905b815481529060010190602001808311610c6b57829003601f168201915b50505050509550808054610c9b90611889565b80601f0160208091040260200160405190810160405280929190818152602001828054610cc790611889565b8015610d125780601f10610ce957610100808354040283529160200191610d12565b820191905f5260205f20905b815481529060010190602001808311610cf557829003601f168201915b505050505090509a509a509a509a509a509a509a509a509a509a50509193959799509193959799565b5f546040516395a8c58d60e01b81526001916001600160a01b0316906395a8c58d90610d6d90339085906004016117cf565b602060405180830381865afa158015610d88573d5f5f3e3d5ffd5b505050506040513d601f19601f82011682018060405250810190610dac9190611808565b610dc85760405162461bcd60e51b81526004016103e490611823565b6001600160a01b038216610e0d5760405162461bcd60e51b815260206004820152600c60248201526b7a65726f206164647265737360a01b60448201526064016103e4565b50600380546001600160a01b0319166001600160a01b0392909216919091179055565b5f546040516395a8c58d60e01b81526001916001600160a01b0316906395a8c58d90610e6290339085906004016117cf565b602060405180830381865afa158015610e7d573d5f5f3e3d5ffd5b505050506040513d601f19601f82011682018060405250810190610ea19190611808565b610ebd5760405162461bcd60e51b81526004016103e490611823565b6001600160a01b038216610f025760405162461bcd60e51b815260206004820152600c60248201526b7a65726f206164647265737360a01b60448201526064016103e4565b6001600160a01b0382165f81815260066020526040808220600401805460ff19166001179055517f72d95b5ce3143d0ea8146e1d68ee36cc9a2996cefe06712c98f4b59041583f119190a25050565b6001600160a01b0381165f90815260076020908152604091829020805483518184028101840190945280845260609392830182828015610fae57602002820191905f5260205f20905b815481526020019060010190808311610f9a575b50505050509050919050565b5f8281526005602081905260409091209081015460ff16156110115760405162461bcd60e51b815260206004820152601060248201526f185b1c9958591e481d995c9a599a595960821b60448201526064016103e4565b80546001600160a01b03165f9081526006602052604081206009549091906127109061103d9086611a1d565b6110479190611a34565b6006840181905560058401805460ff191660011790558254909150819083905f90611073908490611a53565b9091555050600282018054905f6110898361185d565b909155505082546110a2906001600160a01b0316611397565b60015483546001600160a01b03918216916340c10f1991166110cc84670de0b6b3a7640000611a1d565b6040516001600160e01b031960e085901b1681526001600160a01b03909216600483015260248201526044015f604051808303815f87803b15801561110f575f5ffd5b505af1158015611121573d5f5f3e3d5ffd5b50506003546001600160a01b03161591506111949050576003548354604051636c8b314560e11b81526001600160a01b03918216600482015291169063d916628a906024015f604051808303815f87803b15801561117d575f5ffd5b505af115801561118f573d5f5f3e3d5ffd5b505050505b81546103e8118015906111b5575081546103e8906111b3908390611a66565b105b1561122a5760025483546040516340d097c360e01b81526001600160a01b0391821660048201529116906340d097c3906024016020604051808303815f875af1158015611204573d5f5f3e3d5ffd5b505050506040513d601f19601f820116820180604052508101906112289190611a79565b505b81546113881180159061124b5750815461138890611249908390611a66565b105b156112c05760025483546040516340d097c360e01b81526001600160a01b0391821660048201529116906340d097c3906024016020604051808303815f875af115801561129a573d5f5f3e3d5ffd5b505050506040513d601f19601f820116820180604052508101906112be9190611a79565b505b8154612710118015906112e157508154612710906112df908390611a66565b105b156113565760025483546040516340d097c360e01b81526001600160a01b0391821660048201529116906340d097c3906024016020604051808303815f875af1158015611330573d5f5f3e3d5ffd5b505050506040513d601f19601f820116820180604052508101906113549190611a79565b505b847fda4c63c7242f4fc2d90581234eb84a05848cd2629971533cd35b46bb83c1a8ea8260405161138891815260200190565b60405180910390a25050505050565b6001600160a01b0381165f90815260066020526040812060018101549091036113c4575f60039091015550565b5f816001015482600201546103e86113dc9190611a1d565b6113e69190611a34565b90505f612710835f0154116114335782546113881061142b5782546103e810611423578254606410611418575f61141b565b60fa5b60ff16611437565b6101f4611437565b6102ee611437565b6103e85b61ffff169050806103e861144d846101f4611a1d565b6114579190611a34565b6114619190611a53565b600384018190556103e8101561147a576103e860038401555b836001600160a01b03167ffc577563f1b9a0461e24abef1e1fcc0d33d3d881f20b5df6dda59de4aae2c82184600301546040516114b991815260200190565b60405180910390a250505050565b80151581146114d4575f5ffd5b50565b5f5f5f606084860312156114e9575f5ffd5b8335925060208401356114fb816114c7565b929592945050506040919091013590565b80356001600160a01b0381168114611522575f5ffd5b919050565b5f5f60408385031215611538575f5ffd5b6115418361150c565b946020939093013593505050565b5f6020828403121561155f575f5ffd5b6115688261150c565b9392505050565b5f6020828403121561157f575f5ffd5b5035919050565b5f5f60408385031215611597575f5ffd5b823591506115a76020840161150c565b90509250929050565b5f5f83601f8401126115c0575f5ffd5b50813567ffffffffffffffff8111156115d7575f5ffd5b6020830191508360208285010111156115ee575f5ffd5b9250929050565b5f5f5f5f5f5f5f5f5f60a08a8c03121561160d575f5ffd5b893567ffffffffffffffff811115611623575f5ffd5b61162f8c828d016115b0565b909a5098505060208a013567ffffffffffffffff81111561164e575f5ffd5b61165a8c828d016115b0565b90985096505060408a0135945060608a013567ffffffffffffffff811115611680575f5ffd5b61168c8c828d016115b0565b90955093505060808a013567ffffffffffffffff8111156116ab575f5ffd5b6116b78c828d016115b0565b915080935050809150509295985092959850929598565b5f81518084528060208401602086015e5f602082860101526020601f19601f83011685010191505092915050565b6001600160a01b038b168152610140602082018190525f906117209083018c6116ce565b8281036040840152611732818c6116ce565b9050896060840152828103608084015261174c818a6116ce565b905087151560a08401528660c08401528560e08401528461010084015282810361012084015261177c81856116ce565b9d9c50505050505050505050505050565b602080825282518282018190525f918401906040840190835b818110156117c45783518352602093840193909201916001016117a6565b509095945050505050565b6001600160a01b038316815260408101600483106117fb57634e487b7160e01b5f52602160045260245ffd5b8260208301529392505050565b5f60208284031215611818575f5ffd5b8151611568816114c7565b6020808252600c908201526b6d697373696e6720726f6c6560a01b604082015260600190565b634e487b7160e01b5f52601160045260245ffd5b5f6001820161186e5761186e611849565b5060010190565b634e487b7160e01b5f52604160045260245ffd5b600181811c9082168061189d57607f821691505b6020821081036118bb57634e487b7160e01b5f52602260045260245ffd5b50919050565b601f82111561190557805f5260205f20601f840160051c810160208510156118e65750805b601f840160051c820191505b81811015610611575f81556001016118f2565b505050565b67ffffffffffffffff83111561192257611922611875565b611936836119308354611889565b836118c1565b5f601f841160018114611967575f85156119505750838201355b5f19600387901b1c1916600186901b178355610611565b5f83815260208120601f198716915b828110156119965786850135825560209485019460019092019101611976565b50868210156119b2575f1960f88860031b161c19848701351681555b505060018560011b0183555050505050565b81835281816020850137505f828201602090810191909152601f909101601f19169091010190565b604081525f6119ff6040830186886119c4565b8281036020840152611a128185876119c4565b979650505050505050565b808202811582820484141761073e5761073e611849565b5f82611a4e57634e487b7160e01b5f52601260045260245ffd5b500490565b8082018082111561073e5761073e611849565b8181038181111561073e5761073e611849565b5f60208284031215611a89575f5ffd5b505191905056fea2646970667358221220c544a9cdad6aade8f3e4c4251db992d9cb9bcef26280a0a0e1fea89159b2541a64736f6c634300081c0033",
  "linkReferences": {},
  "deployedLinkReferences": {},
  "immutableReferences": {},
  "inputSourceName": "project/contracts/EcoLedgerV2.sol",
  "buildInfoId": "solc-0_8_28-4f16f919321a8ef979ce05660285caa45b76c2a9"
}